:020000040800F2
:1000000058050020450100084D0100084F01000877
:1000100051010008530100085501000800000000CC
:100020000000000000000000000000005701000870
:1000300059010008000000005B0100085D01000894
:100040005F0100085F0100085F0100085F01000810
:100050005F0100085F0100085F0100085F01000800
:10006000A1060008F5060008590700085F0100080E
:100070005F0100085F0100085F0100085F010008E0
:100080005F0100085F0100085F0100085F010008D0
:100090005F0100085F0100085F0100085F010008C0
:1000A0005F0100085F0100085F0100085F010008B0
:1000B000C90D00085F0100085F0100085F0100082A
:1000C0005F0100085F0100085F0100085F01000890
:1000D0005F010008A51100085F0100085F0100082A
:1000E0005F0100085F0100085F0100085F01000870
:1000F0005F0100085F0100085F0100085F01000860
:100100005F0100085F0100085F0100085F0100084F
:100110005F0100085F0100085F0100085F0100083F
:100120005F0100085F0100085F0100085F0100082F
:10013000DFF80CD000F092FA00480047BD19000823
:10014000580500200648804706480047FEE7FEE7BE
:10015000FEE7FEE7FEE7FEE7FEE7FEE7FEE7FEE777
:10016000690D00083101000880EA010210B502F0B3
:100170000043400022D04A001FD0010E01EB126163
:10018000C0F35600C2F3560240F4000042F40002ED
:10019000A0FB022000047F39140400D0401C50EA68
:1001A000124001D44000491EC2B20C0604EBD0102C
:1001B000401C4008802A02D003E0002010BD20F03F
:1001C0000100002900DA0020184310BD30B480EA95
:1001D000010202F0004530F0004221F0004013D04F
:1001E00090B1C30DD40DC2F31601C0F31600E41A8A
:1001F00041F4000140F400027D34914201D3641CBB
:1002000000E04900002C02DA30BC002070474FF4B7
:1002100000000023914201D3891A034340084FEAAA
:100220004101F7D151B1914202D14FF0004105E0B7
:1002300002D24FF0010101E06FF0010103EBC45065
:10024000284430BC00F076B92DE9FE4F81EA030462
:1002500004F0004421F0004100944FF0000B23F023
:10026000004350EA01045ED052EA03045BD0C3F3BA
:100270000A54C1F30A552C44A4F2F3340194A0FBB0
:100280000254C1F3130141F48011C3F3130343F487
:10029000801301FB024400FB034E840A970A44EAE0
:1002A000815447EA8357A4FB076802958D0A05FB32
:1002B00007854FEA932C04FB0C542705029D4FEA57
:1002C000065847EA1637B5EB08056EEB070C870EA4
:1002D000920E47EA811742EA8312A7FB0201B6EBAE
:1002E0000B0164EB00042B0D43EA0C335E1844EB66
:1002F0001C50DA465146E7FB0201C5F313044FEAEE
:100300000B3343EA14534FEA0432019C43EA0603D9
:10031000A4F10C040294009CCDE900B400F050F963
:1003200003B0BDE8F08F00200146F9E72DE9F04D5C
:1003300081EA030404F0004B21F0004514464FF01D
:10034000000A23F0004150EA050220D054EA0102DD
:100350001DD0C5F30A570246C5F31303C1F31300BA
:10036000C1F30A5640F4801543F48013A7EB060846
:10037000101BD64608F2FD3873EB050002D308F1D6
:10038000010801E092185B41B8F1000F03DA002088
:100390000146BDE8F08D00204FF4801106468446EA
:1003A0000EE0171B73EB050705D3121B63EB050368
:1003B00006434CEA010C49084FEA300092185B41B1
:1003C00050EA0107EDD152EA030012D082EA04009C
:1003D00083EA0501084305D0101BAB4106D2012278
:1003E000002306E000224FF0004302E06FF001021C
:1003F00053101AEB06004CEB085110EB0A0041EBCE
:100400000B01BDE8F04D00F0CCB896230022114658
:1004100000F099B80EB5C10F80EAE0700844CA0731
:10042000002140F233438DE80E000A460B4600F0EF
:10043000C7F803B000BD0EB540F233410291002170
:10044000CDE900110A460B4600F0BAF803B000BD32
:1004500000F0004220F00040C10DC0F3160040F44F
:1004600000007F2901DA00207047962903DCC1F1E2
:100470009601C84001E096398840002AF4D04042F5
:10048000704720F00040C10DC0F3160040F400009A
:100490007F2901DA00207047962903DCC1F196011B
:1004A000C840704796398840704770B5C1F30A520A
:1004B00001F000450024C1F3130140F2FF3341F481
:1004C00080119A4201DA002070BD40F233439A4213
:1004D000A2F2334203DC524200F01CF800E09040EC
:1004E0002C43F1D0404270BD30B50B460146002090
:1004F0002022012409E021FA02F59D4205D303FAE6
:1005000002F5491B04FA02F52844151EA2F1010266
:10051000F1DC30BD202A04DB203A21FA02F0002170
:10052000704721FA02F3D040C2F120029140084303
:10053000194670470029A8BF7047401C490008BFF2
:1005400020F00100704710B4B0FA80FC00FA0CF003
:1005500050EA010404BF10BC704749B1CCF120043B
:1005600021FA04F411FA0CF118BF012121430843C8
:10057000A3EB0C01CB1D4FEA00614FEA102042BFF4
:10058000002010BC704700EBC35010440029A4BFEA
:1005900010BC7047401C490008BF20F0010010BC8F
:1005A000704710B5141E73F1000408DA401C41F1C5
:1005B000000192185B411A4301D120F0010010BDE7
:1005C0002DE9F04D92469B4611B1B1FA81F202E05D
:1005D000B0FA80F22032904600F052F804460F46FE
:1005E00040EA0A0041EA0B0153465A46084313D039
:1005F000114653EA010019D0C8F140025046FFF7F6
:1006000089FF05460E4650465946424600F038F8E6
:10061000084305D0012004E020463946BDE8F08DAE
:100620000020054346EAE0762C4337430A986305E9
:10063000E40AA0EB08000022FD0A44EA47540A300D
:1006400002D500200146E9E7010510196941DDE9FD
:10065000084500196941BDE8F04DA2E7064C074D79
:1006600006E0E06840F0010394E807009847103482
:10067000AC42F6D3FFF760FDBC1B0008DC1B000892
:10068000202A04DB203A00FA02F100207047914052
:10069000C2F1200320FA03F3194390407047000091
:1006A00010B50A2001F056F90848006848B9084812
:1006B000006808B9012000E000200549086001F049
:1006C00021FA042000F09AF810BD0000080123422E
:1006D000948121421CB50420009000208DF8040074
:1006E0000C208DF8050001208DF80600684600F00A
:1006F0008BF81CBD10B50D48006898B90C4800680F
:1007000008B9012000E000200949086000214FF0ED
:10071000804000F0F0FC0748008881B24FF0804034
:1007200000F0EBFC082000F069F810BD0C0123423A
:10073000948121425A0000201CB50820009000201E
:100740008DF804000C208DF8050001208DF80600BE
:10075000684600F059F81CBD10B50D48006898B9FE
:100760000C48006808B9012000E000200949086031
:100770000948008881B24FF0804000F0BCFC0021A5
:100780004FF0804000F0B9FC102000F037F810BDA9
:1007900010012342948121425C0000201CB51020EE
:1007A000009000208DF804000C208DF80500012039
:1007B0008DF80600684600F027F81CBD10B500F063
:1007C0001DF90121084600F0CDF90421084600F08A
:1007D00065F80321042000F061F80221042000F0F4
:1007E0005DF8FFF777FFFFF7A7FFFFF7D7FF00F0F0
:1007F00031F900F03FF900F04DF910BD01490860F2
:100800007047000014040140002123498279002A26
:100810003AD00A46126803689A430B461A600A1DCA
:10082000126803689A430B1D1A60027911440A6822
:1008300003681A430A60184A0832126803689A4328
:10084000154B08331A601A1D126803689A43124B3D
:100850000C331A604279102A0ED11A1F12680368ED
:100860001A430D4B08331A601A1D126803681A43A5
:10087000094B0C331A600DE00749427911440A68AC
:1008800003681A430A6005E0027911440A680368A4
:100890009A430A60704700000004014030B500220E
:1008A0008B071C0F0F2303FA04F20B4B8C1053F829
:1008B00024309343084C8D1044F8253023468C1087
:1008C00053F824308C07240F00FA04F42343024C1D
:1008D0008D1044F8253030BD080001402DE9F0416D
:1008E000024600250026002000230024002791F85E
:1008F00003C00CF00F0591F803C00CF0100CBCF114
:10090000000F03D091F802C04CEA050591F800C031
:10091000BCF1000F31D0146800202BE04FF0010C27
:100920000CFA00F3B1F800C00CEA03069E4220D195
:1009300083004FF00F0C0CFA03F7BC4305FA03FCDD
:100940004CEA040491F803C0BCF1280F06D14FF023
:10095000010C0CFA00FCC2F814C00AE091F803C0C4
:10096000BCF1480F05D14FF0010C0CFA00FCC2F8A5
:1009700010C0401C0828D1D31460B1F800C0BCF1ED
:10098000FF0F34DD546800202EE000F1080C4FF01A
:10099000010808FA0CF3B1F800C00CEA03069E4205
:1009A00021D183004FF00F0C0CFA03F7BC4305FA7A
:1009B00003FC4CEA040491F803C0BCF1280F05D1F4
:1009C00000F1080C08FA0CF8C2F8148091F803C082
:1009D000BCF1480F07D100F1080C4FF0010808FAEC
:1009E0000CF8C2F81080401C0828CED35460BDE833
:1009F000F0814161704701617047000008B5012135
:100A0000402000F0AFF81C20ADF8000048208DF821
:100A1000030003208DF8020069460248FFF75EFFDD
:100A200008BD00000018014008B50121082000F0B1
:100A300099F82020ADF8000010208DF80300032065
:100A40008DF8020069460248FFF748FF08BD000024
:100A5000000C014008B508208DF8000002208DF838
:100A600001008DF8020001208DF80300684600F0B7
:100A700027F808BD08B509208DF8000002208DF880
:100A800001008DF8020001208DF80300684600F097
:100A900017F808BD08B50A208DF8000002208DF86F
:100AA00001008DF8020001208DF80300684600F077
:100AB00007F808BD10B54FF4A06000F039F810BD7C
:100AC00070B5002100230F22C47804B3154C2468AC
:100AD00004F4E064C4F5E064210AC1F10403CA40EF
:100AE000447804FA03F184781440214309010E4C40
:100AF0000678A155047804F01F050124AC40057860
:100B00006D11AD0005F1E025C5F8004109E004785C
:100B100004F01F050124AC40044D0678761145F819
:100B2000264070BD0CED00E000E400E080E100E054
:100B300002490143024A1160704700000000FA05B3
:100B40000CED00E029B1064AD2690243044BDA6198
:100B500004E0034AD2698243014BDA617047000026
:100B60000010024029B1064A92690243044B9A617F
:100B700004E0034A92698243014B9A617047000086
:100B80000010024030B500210022002400232D4D2A
:100B90006D6805F00C0121B1042905D0082923D185
:100BA00005E0294D056022E0274D05601FE0254D39
:100BB0006D6805F47012234D6D6805F480340225CC
:100BC00005EB92421CB9214D554305600BE01D4DCC
:100BD0006D6805F400351DB11C4D5543056002E0FC
:100BE000194D5543056002E0174D056000BF00BF79
:100BF000144D6D6805F0F0010909154D6B5C056831
:100C0000DD4045600F4D6D6805F4E061090A104D47
:100C10006B5C4568DD4085600A4D6D6805F4605188
:100C2000C90A0B4D6B5C4568DD40C560054D6D68BC
:100C300005F44041890B074D6B5CC568B5FBF3F5C6
:100C4000056130BD0010024000127A0000093D002D
:100C5000140000202400002010B500F001F810BDA1
:100C60000CB50020019000903348006840F48030BB
:100C70003149086000BF3048006800F4003000903F
:100C80000198401C0190009818B90198B0F5A06F28
:100C9000F1D12948006800F4003010B10120009023
:100CA00001E0002000900098012843D1234800680B
:100CB00040F01000214908600846006820F0030059
:100CC00008600846006840F0020008601A48406862
:100CD000194948600846406848600846406840F442
:100CE000806048600846406820F47C1048600846F0
:100CF000406840F4E81048600846006840F08070A2
:100D0000086000BF0C48006800F000700028F9D0AF
:100D10000948406820F003000749486008464068D9
:100D200040F00200486000BF0348406800F00C003B
:100D30000828F9D10CBD000000100240002002403C
:100D4000042808D14FF0E021096941F004014FF077
:100D5000E022116107E04FF0E021096921F0040170
:100D60004FF0E0221161704710B51348006840F061
:100D700001001149086008464068104908400E49C2
:100D80004860084600680E4908400B49086008465C
:100D9000006820F4802008600846406820F4FE00C7
:100DA00048604FF41F008860FFF756FF4FF0006067
:100DB0000449086010BD0000001002400000FFF868
:100DC000FFFFF6FE08ED00E070B50121880700F096
:100DD00015F9002872D07948456805EBD570C0F345
:100DE0004F014FF0804000F084F97448808881B250
:100DF0004FF0804000F07BF97048007830B1012856
:100E000016D0022879D0032811D168E000206C495F
:100E100008606C49086000214FF0804000F0E2F863
:100E200001216948FFF7E5FD002068490860BDE041
:100E300063480068401C624908606048407828B9EF
:100E400063480068401C6249086004E0604800682C
:100E5000401E5F49086059484069401C5749486135
:100E60000846406857490968022202FB00115348AE
:100E700040698000401C91FBF0F050498988081AB5
:100E800084B24E4840684F49096802FB00114B4844
:100E900040698000401C91FBF0F200FB12104949B0
:100EA00008604648806846490968884207D8434830
:100EB000C06842494861022008700FE07DE03F4869
:100EC0000069A0420ADB434804803C48008A84B29F
:100ED00000203C49086003203849087066E0384823
:100EE0000068401C364908603448407830B93848BA
:100EF0000068401C3649086005E016E03448006888
:100F0000401E334908602D48008A84B22B4880680F
:100F10002B490968884207D82848C0682749486192
:100F20002C4804880220087040E025480068401CD6
:100F3000234908602148407828B925480068401CAA
:100F40002349086004E022480068401E20490860E8
:100F50001A484069401C19494861084640681949C7
:100F60000968022202FB0011144840698000401CFD
:100F700091FBF0F011498988081A84B20F48406843
:100F80001049096802FB00110C4840698000401CB0
:100F900091FBF0F200FB12100A4908600748406913
:100FA000002802DB00200549087000BF00BF03488D
:100FB00044600121880700F012F870BD4001002054
:100FC000700000207400002000100140600000202C
:100FD000640000206C000020CA4302827047CA43AC
:100FE0000282704721B1028842F00102028004E0CF
:100FF00002884FF6FE731A400280704730B50246F1
:10100000002000230024158A05EA0103958905EADA
:10101000010413B10CB1012000E0002030BD1AB171
:1010200083890B43838102E083898B4383817047EB
:1010300070B5002400220023058C4FF6EF76354072
:101040000584028C8388048B48F6FF752C404FF68C
:10105000FF452C400D884FF6FF7606EA05252C4308
:101060004FF6DF752A400D8906EA05152A434D889B
:1010700006EA05152A43154DA84202D0144DA84290
:101080001DD14FF67F752A404D894FF6FF7606EA4F
:1010900005152A434FF6BF752A408D8806EA0515C7
:1010A0002A434FF6FF352B404FF2FF752B408D89B9
:1010B00006EA85052B43CD8906EA85052B43838007
:1010C0000483CD880587028470BD0000002C014098
:1010D000003401400A460021018B4FF2FF73194092
:1010E0004FF6FF7303EA022319430183704781859A
:1010F00070470187704781877047A0F8401070479C
:10110000002202881D4B98420ED01D4B98420BD0F6
:10111000B0F1804F08D01B4B984205D01A4B984233
:1011200002D01A4B984204D14FF68F731A404B8865
:101130001A43174B984207D0164B984204D04FF6EB
:10114000FF431A40CB881A4302808B8883850B8823
:1011500003850A4B98420BD0094B984208D00E4B9E
:10116000984205D00D4B984202D00D4B984201D1C8
:101170000B7A03860123838270470000002C014014
:10118000003401400004004000080040000C004012
:1011900000100040001400400040014000440140A5
:1011A0000048014010B5002440F225511C4800F0D1
:1011B00049F810B31A4800F001F9C4B21948008880
:1011C00000F40040C8B91748008800F4804060B1BE
:1011D0000A2C03D000201349088020E01148008821
:1011E00040F400400F49088019E00D2C06D10D484D
:1011F000008840F480400B49088010E009480088CE
:10120000C0F30D0008490C5406480088401C0549ED
:10121000088008460088C72801DD0020088010BD2E
:1012200000380140580000207800002021B1828958
:1012300042F40052828104E082894DF6FF731A4025
:101240008281704770B502460024002300250020EB
:1012500040F66A16B14200D100BFC1F3421501F059
:101260001F03012606FA03F3012D02D196893340AC
:1012700006E0022D02D1168A334001E0968A3340FF
:101280000C12012606FA04F41688344013B10CB18E
:10129000012000E0002070BDF0B5034600240026C8
:1012A0000025002040F66A17B94200D100BF184659
:1012B000C1F3421401F01F06012707FA06F5012CBD
:1012C00001D10C3004E0022C01D1103000E01430C8
:1012D0001AB107682F43076002E00768AF43076051
:1012E000F0BD00002DE9F04786B005460E4600240B
:1012F000A24600BFA1460027B08900B100BF2F461B
:101300002C8A4CF6FF700440F08804432C82AC8990
:101310004EF6F3100440B0883189084371890843C0
:101320000443AC81AC8A4FF6FF400440B0890443CB
:10133000AC8201A8FFF726FC1F48874202D1DDF8E6
:1013400010A001E0DDF80CA0A88900F4004040B135
:101350000AEBCA0000EB0A1031684900B0FBF1F853
:1013600007E00AEBCA0000EB0A1031688900B0FB05
:10137000F1F86420B8FBF0F004012009642101FBBE
:101380001089A88900F4004040B1322000EBC90068
:10139000B0FBF1F000F00700044308E0322000EB5E
:1013A00009106421B0FBF1F000F00F0004432C8120
:1013B00006B0BDE8F087000000380140014688888B
:1013C000C0F308007047000070B504460D460026C3
:1013D000012D00D101264EB1012E0FD1B4F1804F65
:1013E00003D101210648FFF704FB07E0B4F1804F69
:1013F00003D101210248FFF7FEFA00BF00BF70BD14
:101400000010014008B501211520FFF7ABFB0220B9
:10141000ADF8000018208DF8030003208DF80200BD
:1014200069460748FFF75AFA0320ADF8000010207C
:101430008DF8030069460348FFF750FA08BD000025
:1014400000080140001001402DE9F04F8BB0044628
:101450000E46174699467A480068241A01218807E3
:10146000FFF7B2FF002C08DA01207649487002210C
:101470007548FFF7BEFA644206E0002071494870E3
:1014800002217148FFF7B7FA012C0BD1A01E6D495C
:101490004861022008704FF47A70486001206B495F
:1014A0000860A7E0002CFCD04846FEF7AEFF09908C
:1014B000674800680921B0FBF1F00790FEF7A5FF2F
:1014C00083466449FEF750FE08900999FEF77EFEB8
:1014D0008246FEF7BDFF5B4908613046FEF795FF87
:1014E000014600905C48FEF771FE0190FEF7C9FFCF
:1014F000834600F029F98246FEF79DFFCDE90401FD
:10150000534800680921B0FBF1FA5046FEF793FFFB
:10151000524A534BCDE90001FEF796FECDE9020198
:10152000DDE90423FEF790FE00224E4BCDE90601D3
:10153000FEF7FCFECDE90801FEF7B7FF4149486020
:10154000434800680921B0FBF1FA514646A000F07B
:1015500015F93C48416846A000F010F93046FEF706
:1015600054FF49490890FEF7FFFD834609FB09F047
:10157000FEF74BFF59460990FEF728FE8246FEF71C
:1015800080FF054605B9012504FB07F0F119B0FB02
:10159000F1F8B8F1000F01D14FF00108A84504D8C7
:1015A000A8EB04002749C86006E005FB06F0B0FB85
:1015B000F7F040422349C8602248C06818B94FF08C
:1015C000FF302049C8601F48C06820441D4988601A
:1015D000084640680969884206DC1A4800691949CA
:1015E00048600320087002E00120164908700020BE
:1015F000144948610120154908601248D0F804A038
:101600000AEBDA70C0F34F014FF08040FFF771FD35
:101610000C48808881B24FF08040FFF768FD094890
:1016200041681AA000F0AAF8064801691AA000F063
:10163000A5F801218807FFF7D5FC0BB0BDE8F08FB6
:1016400064000020400100200010014060000020E4
:101650000000002004AD003C33139D426F1283C094
:10166000CAA1E53F0000594054313A25640000000A
:101670007372645F782E737465705F64656C6179F2
:101680003A25640A0D00000004AD803C7374657057
:101690003A25640A0D000000D7EEB4F3CBD9B6C8E2
:1016A0003A25640A0D00000008B54FF4A060FFF76A
:1016B0003FFA1C208DF8000000208DF801008DF805
:1016C000020001208DF803006846FFF7F9F908BD14
:1016D00000B587B001210846FFF734FAFFF792FE04
:1016E000FFF7E2FF4FF6FF70ADF814000820ADF8E9
:1016F00010000020ADF81600ADF8120004A94FF05C
:101700008040FFF7FDFC6020ADF800000120ADF83F
:1017100002004FF47A70ADF806000020ADF8080022
:1017200069464FF08040FFF783FC0821C806FFF7A9
:10173000D1FC01218807FFF74FFC012211469007D9
:10174000FFF76DFC07B000BD10B5024600214FF059
:10175000804300BFC818904203D8C818121A012449
:1017600000E00024490804B119449808031EF1D18F
:10177000914201D2481C10BD0846FCE70FB4054B4E
:1017800010B503A9044A029800F018F810BC5DF8DF
:1017900014FB0000A11900085400002002E008C852
:1017A000121F08C1002AFAD170477047002001E0DB
:1017B00001C1121F002AFBD1704700002DE9FF4F25
:1017C00089B09B460446002506E025280BD05A46E2
:1017D0000B999047641C6D1C20780028F5D10DB042
:1017E0002846BDE8F08F0027B8460122474900E0AF
:1017F000074314F8013F203B02FA03F00842F7D1F7
:1018000020782E2819D114F8010F47F004072A2850
:101810000ED06FF02F022078A0F1300109290CD8EA
:1018200008EB880102EB410100EB0108641CF2E7C0
:101830000A98641C50F8048B0A9020780028CED0B7
:10184000642808D0692806D075281ED05A460B99FE
:1018500090476D1C58E00A994FF00A0901C90A9196
:10186000002802DA40422D2102E0390504D52B215F
:101870008DF82010012103E0F90704D02021F7E7BB
:101880008A4608AE0DE00021FAE70A994FF00A09EE
:1018900001C90A91F7E74946FEF726FE303106F8FE
:1018A000011D0028F7D1ADEB060000F120097807F3
:1018B00001D44FF00108C84502DDA8EB090000E0A3
:1018C00000208046002706E008A85A46C05D0B9914
:1018D00090476D1C7F1C5745F6DB04E030205A46CC
:1018E0000B9990476D1CB8F10001A8F10108F5DCD7
:1018F00005E016F8010B5A460B9990476D1CB9F19B
:101900000001A9F10109F4DC641C65E70928010064
:1019100010B56FF00400FFF713FA0A4800680A498F
:10192000B0FBF1F0094908700846007800EB40016F
:10193000C1EBC0104FF6FF7101EAC00004490880F6
:1019400010BD00000000002000127A0050000020AE
:10195000520000200146114A12884A434FF0E0230A
:101960005A6100229A611A46126942F001021A6114
:1019700000BF4FF0E022106900F001021AB100F43C
:101980008032002AF5D04FF0E022126922F00102E5
:101990004FF0E0231A6100229A6170475200002044
:1019A00000BF054A128802F04002002AF9D0C2B2F4
:1019B000014B1B1D1A80704700380140FFF7A8FF3C
:1019C000FFF778F84FF4165000F0A8F8FFF72CF85E
:1019D000FEF7F4FEFFF77CFE0020374908606AE05E
:1019E0003648008800F40040002864D03449096873
:1019F000C1EB01118800FEF71EFD0646314A324B4D
:101A0000FEF794FC0446FEF750FD3049086030496B
:101A100009684800FEF70FFD06462E4A2E4BFEF7DA
:101A200013FC0446FEF741FD2C4908602C49096867
:101A30004800FEF700FD0646264A274BFEF704FC49
:101A40000446FEF732FD27490860274909684FF42C
:101A5000487201FB02F0FEF7DDFC06460022234B34
:101A6000FEF764FC0446FEF720FD2149086021488A
:101A700000783038642148431E494978303901EBF9
:101A8000810100EB41011B48807830380844164939
:101A900008600846016818A0FFF770FE0B4803684D
:101AA000104802680D4801680F480068FFF7CCFC39
:101AB00000200249088093E79481214258000020C9
:101AC0004C0000209A9999999919234038000020D8
:101AD000440000206E861BF0F921094030000020F0
:101AE00048000020340000203C00002000C040409E
:101AF000280000207800002058737465703A25642F
:101B00000D0A000010B500214FF08040FFF7F3FAF6
:101B100000214FF08040FFF7F0FA10BD10B586B0FD
:101B20000446012144F20400FFF71CF84FF4007052
:101B3000ADF8140003208DF8160018208DF817005A
:101B400005A91C48FEF7CAFE4FF48060ADF81400EA
:101B500004208DF8170005A91648FEF7BFFE2520C2
:101B60008DF8000003208DF801008DF8020001209F
:101B70008DF803006846FEF7A3FF01940020ADF83E
:101B80000800ADF80A00ADF80C00ADF810000C200C
:101B9000ADF80E0001A90848FFF7A4FB012240F2AE
:101BA00025510548FFF778FB01210348FFF73EFB6D
:101BB00006B010BD0008014000380140DC1B0008E1
:101BC00000000020780000009C170008541C00084A
:101BD00078000020E0040000AC17000800A24A04CE
:101BE00000000000000000000102030406070809CD
:101BF00000000000010203040102030406070809B3
:101C000002040608000000000000000000000000C0
:101C100000000000000000000000000000000000C4
:101C20000900000009000000090000000000000099
:101C3000000000000000230023000000000000005E
:101C40000000000001000000000000000000000093
:041C50000000000090
:0400000508000131BD
:00000001FF
