:020000040800F2
:10000000A83D0020450100084D0100084F010008EF
:1000100051010008530100085501000800000000CC
:100020000000000000000000000000005701000870
:1000300059010008000000005B0100085D01000894
:100040005F0100085F0100085F0100085F01000810
:100050005F0100085F0100085F0100085F01000800
:1000600079090008C90900081D0A00085F01000895
:100070005F0100085F0100085F0100085F010008E0
:100080005F0100085F0100085F0100085F010008D0
:100090005F0100085F0100085F0100085F010008C0
:1000A0005F0100085F0100085F0100085F010008B0
:1000B000A110000855120008591400085F0100083B
:1000C0005F0100085F0100085F0100085F01000890
:1000D0005F010008411800085F0100085F01000887
:1000E0005F0100085F0100085F0100085F01000870
:1000F0005F0100085F0100085F0100085F01000860
:100100005F0100085F0100085F0100085F0100084F
:100110005F0100085F0100085F0100085F0100083F
:100120005F0100085F0100085F0100085F0100082F
:10013000DFF80CD000F098FB004800476D1D000868
:10014000A83D00200648804706480047FEE7FEE736
:10015000FEE7FEE7FEE7FEE7FEE7FEE7FEE7FEE777
:100160004110000831010008F0B480EA0102D40F08
:100170004200B2EB410F02D20246084611464A0045
:1001800042D0C30DDDB2C1F3C752AD1A202D35DA0E
:10019000C1F3160141F4000204B15242C5F1200638
:1001A00002FA06F12A411044B3EBD05F23D0C4B168
:1001B000012DA0EBC35009DCF0BC4FF0004202EA75
:1001C000C352DBB200F5000000F0C2BA400000F1FB
:1001D000807000EBC350A0F1807040EAD1704900FC
:1001E00009E0490841EAC071A0EBC35000F50000E6
:1001F000400800EBC350F0BC00F0A1BA61420122FC
:1002000002EB4101001BF6E7F0BC704781F00041B2
:10021000AAE780F00040A7E780EA010210B502F0EB
:100220000043400022D04A001FD0010E01EB1261B2
:10023000C0F35600C2F3560240F4000042F400023C
:10024000A0FB022000047F39140400D0401C50EAB7
:10025000124001D44000491EC2B20C0604EBD0107B
:10026000401C4008802A02D003E0002010BD20F08E
:100270000100002900DA0020184310BD30B480EAE4
:10028000010202F0004530F0004221F0004013D09E
:1002900090B1C30DD40DC2F31601C0F31600E41AD9
:1002A00041F4000140F400027D34914201D3641C0A
:1002B00000E04900002C02DA30BC002070474FF407
:1002C00000000023914201D3891A034340084FEAFA
:1002D0004101F7D151B1914202D14FF0004105E007
:1002E00002D24FF0010101E06FF0010103EBC450B5
:1002F000284430BC00F023BA2DE9FE4F804681EA45
:100300000300C00F0C46009021F0004123F000458F
:10031000B8EB0200A94105D24046214690461C4652
:100320000B46024623F00040104347D0270DC7F389
:100330000A00C3F30A510290401A019040286BDA78
:10034000C3F3130040F4801B0098924620B10023B1
:10035000D2EB030A63EB0B0B01985946C0F1400244
:10036000504600F0BBF906460D4650465946019AE4
:1003700000F0D3F910EB08006141002487EA115224
:1003800084EAE7731A4340D0009A62B3019A012AC3
:100390004FEA075215DC001B61EB02014FF00042EF
:1003A00002EA0752CDE90042001C41F580113246B5
:1003B0002B4600F00AFA03B0BDE8F08F4046214614
:1003C000F9E7001B61EB0201001C41F580130018E6
:1003D0005B412018A2F5001747EB030140EAD570F6
:1003E000B6196D4111E06D084FEA360645EAC07551
:1003F0004FEA0752001B61EB0201001C41F580111E
:1004000049084FEA30000019514132462B4603B0EB
:10041000BDE8F04F00F0CAB9009801224000002367
:10042000D0EB020263EBE073009821464FEAE074E0
:10043000B8EB000061EB0401E9E783F000435BE700
:1004400081F0004158E72DE9FE4F81EA030404F0F2
:10045000004421F0004100944FF0000B23F00043D2
:1004600050EA01045ED052EA03045BD0C3F30A549D
:10047000C1F30A552C44A4F2F3340194A0FB0254B6
:10048000C1F3130141F48011C3F3130343F4801348
:1004900001FB024400FB034E840A970A44EA81549C
:1004A00047EA8357A4FB076802958D0A05FB078579
:1004B0004FEA932C04FB0C542705029D4FEA065883
:1004C00047EA1637B5EB08056EEB070C870E920E60
:1004D00047EA811742EA8312A7FB0201B6EB0B0140
:1004E00064EB00042B0D43EA0C335E1844EB1C5004
:1004F000DA465146E7FB0201C5F313044FEA0B331A
:1005000043EA14534FEA0432019C43EA0603A4F180
:100510000C040294009CCDE900B400F056F903B03D
:10052000BDE8F08F00200146F9E72DE9F04D81EAA2
:10053000030404F0004B21F0004514464FF0000A7C
:1005400023F0004150EA050220D054EA01021DD0F8
:10055000C5F30A570246C5F31303C1F31300C1F3F1
:100560000A5640F4801543F48013A7EB0608101BCD
:10057000D64608F2FD3873EB050002D308F10108F6
:1005800001E092185B41B8F1000F03DA0020014648
:10059000BDE8F08D00204FF48011064684460EE041
:1005A000171B73EB050705D3121B63EB050306430B
:1005B0004CEA010C49084FEA300092185B4150EABE
:1005C0000107EDD152EA030012D082EA040083EA67
:1005D0000501084305D0101BAB4106D201220023C0
:1005E00006E000224FF0004302E06FF001025310DA
:1005F0001AEB06004CEB085110EB0A0041EB0B0123
:10060000BDE8F04D00F0D2B8C10F80EAE0700844B8
:10061000CA079623002100F09BB8962300221146BA
:1006200000F096B800F0004220F00040C10DC0F389
:10063000160040F400007F2901DA00207047962957
:1006400003DCC1F19601C84001E096398840002AD8
:10065000F4D04042704720F00040C10DC0F31600B6
:1006600040F400007F2901DA00207047962903DC5E
:10067000C1F19601C840704796398840704700F034
:10068000004230F000400AD0C10D01F56071C0F3A6
:10069000160042EA0151C20840071143704700208A
:1006A0000146704701F0004330B421F0004150EAA8
:1006B000010206D00A0DA2F56072C1F31301002AEF
:1006C00002DC30BC00207047440F44EAC104C10082
:1006D000E01830BC00EBC25000F031B8202A04DB37
:1006E000203A00FA02F1002070479140C2F1200345
:1006F00020FA03F3194390407047202A04DB203A84
:1007000021FA02F00021704721FA02F3D040C2F131
:1007100020029140084319467047202A06DBCB1778
:10072000203A41FA02F043EAE07306E041FA02F3AC
:10073000D040C2F120029140084319467047002979
:10074000A8BF7047401C490008BF20F00100704757
:1007500010B4B0FA80FC00FA0CF050EA010404BFB7
:1007600010BC704749B1CCF1200421FA04F411FA0D
:100770000CF118BF012121430843A3EB0C01CB1D51
:100780004FEA00614FEA102042BF002010BC7047C2
:1007900000EBC35010440029A4BF10BC7047401C9C
:1007A000490008BF20F0010010BC704710B5141EAE
:1007B00073F1000408DA401C41F1000192185B411A
:1007C0001A4301D120F0010010BD2DE9F04D9246F1
:1007D0009B4611B1B1FA81F202E0B0FA80F2203208
:1007E0009046FFF77BFF04460F4640EA0A0041EAC5
:1007F0000B0153465A46084313D0114653EA0100F1
:1008000019D0C8F140025046FFF777FF05460E4663
:10081000504659464246FFF761FF084305D0012084
:1008200004E020463946BDE8F08D0020054346EA45
:10083000E0762C4337430A986305E40AA0EB0800EE
:100840000022FD0A44EA47540A3002D5002001463E
:10085000E9E7010510196941DDE908450019694119
:10086000BDE8F04DA2E70000064C074D06E0E06849
:1008700040F0010394E8070098471034AC42F6D3E7
:10088000FFF75AFC281E0008481E00082DE9F04F0B
:1008900089B0824614469B464FF00009002008901C
:1008A000079058461299FFF7B1FC069056E025468E
:1008B00004EBD5714810FFF7A7FE274604EBD7716C
:1008C0000590A9EB6100FFF79FFE80461399FFF7A3
:1008D000A3FC06460599FFF7D1FC0890089880F024
:1008E00000400190FFF7CBFECDE9020101F016FABE
:1008F00000221D4BCDE90401FFF7FEFC07463A46F6
:100900000B4600201849FFF710FE0546FFF7CAFE08
:100910000790DDE90601FFF77FFC05461299FFF716
:1009200023FC124941F82900114800680921B0FB55
:10093000F1F84046FFF771FE07465AF82910FFF715
:100940009DFC06464FF07E51FFF760FC0546FFF721
:1009500082FE084921F8190009F10109A145A6DB29
:1009600009B0BDE8F08F00000000F03FE426002051
:10097000000000206433002010B50A2001F0A8F91F
:100980000648006828B9002005490860012005498B
:100990000870042000F08CF810BD0000080123420C
:1009A00034000020380000201CB5042000900020F6
:1009B0008DF804000C208DF8050001208DF806004C
:1009C000684600F07BF81CBD10B50A2001F080F9E4
:1009D0000748006840B907480068A0F54860054925
:1009E0000860012004490870082000F061F810BD7B
:1009F0000C01234234000020380000201CB50820E0
:100A0000009000208DF804000C208DF805000120D6
:100A10008DF80600684600F051F81CBD10B50A209C
:100A200001F056F90748006840B90748006800F52A
:100A3000486005490860012004490870102000F052
:100A400037F810BD10012342340000203800002088
:100A50001CB51020009000208DF804000C208DF8AB
:100A6000050001208DF80600684600F027F81CBD3F
:100A700010B500F02FF90121084600F0DFF904213C
:100A8000084600F077F80321042000F073F80221F3
:100A9000042000F06FF8FFF787FFFFF7AFFFFFF7C5
:100AA000D7FF00F043F900F051F900F05FF910BDF5
:100AB00001490860704700001404014000212349E7
:100AC0008279002A3AD00A46126803689A430B4694
:100AD0001A600A1D126803689A430B1D1A60027996
:100AE00011440A6803681A430A60184A08321268F7
:100AF00003689A43154B08331A601A1D126803687D
:100B00009A43124B0C331A604279102A0ED11A1FE5
:100B1000126803681A430D4B08331A601A1D1268D5
:100B200003681A43094B0C331A600DE007494279F8
:100B300011440A6803681A430A6005E00279114407
:100B40000A6803689A430A60704700000004014085
:100B500008B58020ADF8000018208DF803000320B0
:100B60008DF802006946024800F024F808BD000034
:100B7000000C014030B500228B071C0F0F2303FA35
:100B800004F20B4B8C1053F824309343084C8D1017
:100B900044F8253023468C1053F824308C07240F5A
:100BA00000FA04F42343024C8D1044F8253030BD84
:100BB000080001402DE9F0410246002500260020F2
:100BC00000230024002791F803C00CF00F0591F8D2
:100BD00003C00CF0100CBCF1000F03D091F802C060
:100BE0004CEA050591F800C0BCF1000F31D0146843
:100BF00000202BE04FF0010C0CFA00F3B1F800C01C
:100C00000CEA03069E4220D183004FF00F0C0CFA31
:100C100003F7BC4305FA03FC4CEA040491F803C053
:100C2000BCF1280F06D14FF0010C0CFA00FCC2F801
:100C300014C00AE091F803C0BCF1480F05D14FF091
:100C4000010C0CFA00FCC2F810C0401C0828D1D3DB
:100C50001460B1F800C0BCF1FF0F34DD546800200F
:100C60002EE000F1080C4FF0010808FA0CF3B1F87F
:100C700000C00CEA03069E4221D183004FF00F0C06
:100C80000CFA03F7BC4305FA03FC4CEA040491F8A0
:100C900003C0BCF1280F05D100F1080C08FA0CF8CC
:100CA000C2F8148091F803C0BCF1480F07D100F1DD
:100CB000080C4FF0010808FA0CF8C2F81080401C2C
:100CC0000828CED35460BDE8F081416170470161CE
:100CD0007047000008B50121402000F0AFF81C204B
:100CE000ADF8000048208DF8030003208DF80200C5
:100CF00069460248FFF75EFF08BD0000001801408A
:100D000008B50121082000F099F82020ADF8000076
:100D100010208DF8030003208DF802006946024878
:100D2000FFF748FF08BD0000000C014008B508208F
:100D30008DF8000002208DF801008DF802000120DE
:100D40008DF80300684600F027F808BD08B50920B3
:100D50008DF8000002208DF801008DF802000120BE
:100D60008DF80300684600F017F808BD08B50A20A2
:100D70008DF8000002208DF801008DF8020001209E
:100D80008DF80300684600F007F808BD10B54FF471
:100D9000A06000F039F810BD70B5002100230F22CB
:100DA000C47804B3154C246804F4E064C4F5E0642A
:100DB000210AC1F10403CA40447804FA03F184789B
:100DC0001440214309010E4C0678A155047804F023
:100DD0001F050124AC4005786D11AD0005F1E0253B
:100DE000C5F8004109E0047804F01F050124AC4077
:100DF000044D0678761145F8264070BD0CED00E0F4
:100E000000E400E080E100E002490143024A116091
:100E1000704700000000FA050CED00E029B1064A19
:100E2000D2690243044BDA6104E0034AD269824387
:100E3000014BDA61704700000010024029B1064AF8
:100E400092690243044B9A6104E0034A9269824327
:100E5000014B9A61704700000010024030B500213C
:100E60000022002400232D4D6D6805F00C0121B1F6
:100E7000042905D0082923D105E0294D056022E089
:100E8000274D05601FE0254D6D6805F47012234D58
:100E90006D6805F48034022505EB92421CB9214DA2
:100EA000554305600BE01D4D6D6805F400351DB11F
:100EB0001C4D5543056002E0194D5543056002E0A5
:100EC000174D056000BF00BF144D6D6805F0F001BF
:100ED0000909154D6B5C0568DD4045600F4D6D6877
:100EE00005F4E061090A104D6B5C4568DD408560E2
:100EF0000A4D6D6805F46051C90A0B4D6B5C45687D
:100F0000DD40C560054D6D6805F44041890B074D16
:100F10006B5CC568B5FBF3F5056130BD00100240A0
:100F200000127A0000093D00140000202400002077
:100F300010B500F001F810BD0CB500200190009034
:100F40003348006840F480303149086000BF3048C1
:100F5000006800F4003000900198401C0190009857
:100F600018B90198B0F5A06FF1D12948006800F4D4
:100F7000003010B10120009001E0002000900098A6
:100F8000012843D12348006840F01000214908603F
:100F90000846006820F0030008600846006840F03A
:100FA000020008601A4840681949486008464068CD
:100FB00048600846406840F48060486008464068E1
:100FC00020F47C1048600846406840F4E81048600F
:100FD0000846006840F08070086000BF0C48006858
:100FE00000F000700028F9D00948406820F00300A4
:100FF000074948600846406840F00200486000BF6A
:101000000348406800F00C000828F9D10CBD00002E
:101010000010024000200240042808D14FF0E021D7
:10102000096941F004014FF0E022116107E04FF03F
:10103000E021096921F004014FF0E02211617047BD
:1010400010B51348006840F00100114908600846D7
:101050004068104908400E494860084600680E493B
:1010600008400B4908600846006820F480200860AA
:101070000846406820F4FE0048604FF41F00886076
:10108000FFF756FF4FF000600449086010BD0000F4
:10109000001002400000FFF8FFFFF6FE08ED00E040
:1010A00010B50121880700F0FBFA00287ED06348C4
:1010B000007C30B1012814D002287BD003280FD146
:1010C00053E000205E49088000214FF0804000F08E
:1010D000DBFA08215B48FFF7F8FD00205A49086059
:1010E00093E057480088401C5549088053480078D1
:1010F00028B956480068401C5449086004E0534829
:101100000068401E514908604C48C0684C49098835
:1011100088420ADD4E484A49098830F8110000B279
:1011200046498880012008741EE04448806844498C
:10113000098888420BD842480088401E444931F84B
:10114000100000B23D498880022008740CE03C4841
:101150000088B0F5487F07DB3D48B0F83E0600B296
:1011600036498880032008744FE035480088401CC9
:10117000334908803148007828B934480068401C59
:101180003249086004E031480068401E2F49086079
:101190002A4880682A49098888420AD82C48B0F829
:1011A0003E0600B225498880022001E044E001E0CB
:1011B00008742AE022480088401C214908801F4802
:1011C000007828B921480068401C2049086004E0E4
:1011D0001E480068401E1D4908601848B0F902000A
:1011E0001749098888420CDD1448B0F902001449F7
:1011F0000988401A164931F8100000B20F4988805A
:1012000002E000200D49087400BF00BF0B48808831
:1012100081B24FF0804000F0BCFA0848B0F90440B9
:1012200004EBD470C0F34F014FF0804000F0B3FAEC
:101230000121880700F025FA10BD000028010020D8
:1012400044000020001001403C000020400000202D
:10125000BC0D002010B50121634800F021FA0028E0
:101260007ED06248007C30B1012813D0022879D0AA
:1012700003280ED152E000205D49088000215A4821
:1012800000F002FA20215B48FFF71FFD00205A49B9
:10129000086092E056480088401C55490880534831
:1012A000007828B955480068401C5449086004E09B
:1012B00052480068401E514908604C48C0684C497B
:1012C000098888420ADD4E484949098830F81100EA
:1012D00000B246498880012008741EE043488068B7
:1012E0004349098888420BD841480088401E444938
:1012F00031F8100000B23D498880022008740CE0EB
:101300003B480088B0F5487F07DB3D48B0F83E0613
:1013100000B236498880032008744EE034480088C3
:10132000401C334908803148007828B933480068A8
:10133000401C3249086004E030480068401E2F49D4
:1013400008602A4880682A490988884207D82C48BA
:10135000B0F83E0600B225498880022008742CE0CF
:1013600040E0FFE722480088401C214908801F48D0
:10137000007828B921480068401C2049086004E032
:101380001E480068401E1D4908601848B0F9020058
:101390001749098888420CDD1448B0F90200144945
:1013A0000988401A164931F8100000B20F498880A8
:1013B00002E000200D49087400BF00BF0B48808880
:1013C00081B2094800F0E5F90848B0F9044004EB9F
:1013D000D470C0F34F01044800F0DDF90121024848
:1013E00000F04FF910BD000000040040FC13002085
:1013F0005000002000080140480000204C00002060
:101400009020002010B501210420FFF707FD0121E5
:101410000920FFF713FD00F025FBFFF799FB00F013
:1014200007F9082142F20F7000F0EEF800F014F90D
:101430000821084800F0A0F90121064800F01EF933
:1014400001221146034800F03CF90021014800F058
:101450001BF910BD0008004010B50121634800F0E1
:101460001FF900287ED06248007C30B1012813D0DB
:10147000022879D003280ED152E000205D4908806F
:1014800000215A4800F000F940215B48FFF71DFC9D
:1014900000205A49086092E056480088401C55498F
:1014A00008805348007828B955480068401C5449C2
:1014B000086004E052480068401E514908604C48EA
:1014C000C0684C49098888420ADD4E484949098864
:1014D00030F8110000B246498880012008741EE0EF
:1014E000434880684349098888420BD841480088AE
:1014F000401E444931F8100000B23D498880022066
:1015000008740CE03B480088B0F5487F07DB3D4895
:10151000B0F83E0600B236498880032008744EE0D9
:1015200034480088401C334908803148007828B985
:1015300033480068401C3249086004E030480068C5
:10154000401E2F4908602A4880682A490988884235
:1015500007D82C48B0F83E0600B225498880022002
:1015600008742CE040E0FFE722480088401C214935
:1015700008801F48007828B921480068401C20498D
:10158000086004E01E480068401E1D4908601848B5
:10159000B0F902001749098888420CDD1448B0F9F7
:1015A000020014490988401A164931F8100000B2A7
:1015B0000F49888002E000200D49087400BF00BF79
:1015C0000B48808881B2094800F0E3F80848B0F978
:1015D000044004EBD470C0F34F01044800F0DBF882
:1015E0000121024800F04DF810BD00000008004045
:1015F000D02600205C000020000C01405400002098
:1016000058000020643300203EB505460C46ADF876
:101610000450ADF800400020ADF80600ADF802001F
:101620006946024800F0BAF83EBD000000080040DC
:1016300008B54FF4A060FFF7E7FB1E208DF800000F
:1016400000208DF801008DF8020001208DF80300C4
:101650006846FFF7A1FB08BD1FB57020ADF800007C
:101660000120ADF802000220ADF8080069460248EA
:1016700000F030F81FBD000000080040CA4302829D
:101680007047CA430282704721B1028842F00102CA
:10169000028004E002884FF6FE731A400280704711
:1016A00030B50246002000230024158A05EA010314
:1016B000958905EA010413B10CB1012000E0002076
:1016C00030BD1AB183890B43838102E083898B4348
:1016D0008381704770B5002400220023058C4FF6EB
:1016E000EF7635400584028C8388048B48F6FF75BD
:1016F0002C404FF6FF452C400D884FF6FF7606EA4A
:1017000005252C434FF6DF752A400D8906EA05159D
:101710002A434D8806EA05152A43154DA84202D0F2
:10172000144DA8421DD14FF67F752A404D894FF6C2
:10173000FF7606EA05152A434FF6BF752A408D88C5
:1017400006EA05152A434FF6FF352B404FF2FF7589
:101750002B408D8906EA85052B43CD8906EA850550
:101760002B4383800483CD880587028470BD0000ED
:10177000002C0140003401400A460021818B4FF2C9
:10178000FF7319404FF6FF7303EA02231943818365
:1017900070478185704701877047000000220288EA
:1017A0001D4B98420ED01D4B98420BD0B0F1804F8C
:1017B00008D01B4B984205D01A4B984202D01A4BC6
:1017C000984204D14FF68F731A404B881A43174B37
:1017D000984207D0164B984204D04FF6FF431A4068
:1017E000CB881A4302808B8883850B8803850A4B3C
:1017F00098420BD0094B984208D00E4B984205D026
:101800000D4B984202D00D4B984201D10B7A0386C2
:101810000123838270470000002C01400034014006
:101820000004004000080040000C00400010004090
:1018300000140040004001400044014000480140C5
:1018400010B5002440F225511C4800F049F810B3AF
:101850001A4800F001F9C4B21948008800F40040A9
:10186000C8B91748008800F4804060B10A2C03D042
:1018700000201349088020E01148008840F400400F
:101880000F49088019E00D2C06D10D48008840F45E
:1018900080400B49088010E009480088C0F30D0023
:1018A00008490C5406480088401C05490880084631
:1018B0000088C72801DD0020088010BD00380140E5
:1018C000300000206000002021B1828942F40052E3
:1018D000828104E082894DF6FF731A40828170474D
:1018E00070B50246002400230025002040F66A1649
:1018F000B14200D100BFC1F3421501F01F03012620
:1019000006FA03F3012D02D19689334006E0022D39
:1019100002D1168A334001E0968A33400C12012628
:1019200006FA04F41688344013B10CB1012000E02B
:10193000002070BDF0B503460024002600250020DD
:1019400040F66A17B94200D100BF1846C1F34214ED
:1019500001F01F06012707FA06F5012C01D10C3012
:1019600004E0022C01D1103000E014301AB10768F5
:101970002F43076002E00768AF430760F0BD000037
:101980002DE9F04786B005460E460024A24600BF6A
:10199000A1460027B08900B100BF2F462C8A4CF623
:1019A000FF700440F08804432C82AC894EF6F3109B
:1019B0000440B08831890843718908430443AC81ED
:1019C000AC8A4FF6FF400440B0890443AC8201A8C2
:1019D000FFF744FA1F48874202D1DDF810A001E06A
:1019E000DDF80CA0A88900F4004040B10AEBCA0061
:1019F00000EB0A1031684900B0FBF1F807E00AEB90
:101A0000CA0000EB0A1031688900B0FBF1F86420CD
:101A1000B8FBF0F004012009642101FB1089A889BA
:101A200000F4004040B1322000EBC900B0FBF1F0FF
:101A300000F00700044308E0322000EB09106421A5
:101A4000B0FBF1F000F00F0004432C8106B0BDE8BC
:101A5000F08700000038014001468888C0F3080084
:101A60007047000008B501210820FFF7E7F92020A2
:101A7000ADF8000010208DF8030003208DF802005F
:101A800069460948FFF796F84020ADF8000069461E
:101A90000548FFF78FF820210348FFF716F940218A
:101AA0000148FFF712F908BD000C014070B504466B
:101AB0000D460026012D00D101264EB1012E0FD179
:101AC0000848844203D140210748FFF7FEF807E0A9
:101AD0000448844203D140210348FFF7F8F800BFCF
:101AE00000BF70BD00080040000C01402DE9FC5F04
:101AF00004460E4615461F4633464FF44872404989
:101B00004048CDE90057FEF7C1FE3F480068241A5F
:101B100001213E48FFF7CAFF002C08DA01203C49AA
:101B2000087020213B48FFF7D0F8644206E000200F
:101B30003749087020213748FFF7C9F820B23449E7
:101B40004880012C1ED10120C8603348006809215B
:101B5000B0FBF1FB5846FEF760FD82462946FEF7D2
:101B60008DFB81464FF07E51FEF750FB8046FEF71D
:101B700059FD00B2264988800220087401202749B7
:101B8000086026E02CB3B4F5C86F13DC1C4800884D
:101B900000B21F498880204604EBD07149101C4ACE
:101BA000D1601046C06811468860012008741B4946
:101BB00008600EE01248008800B2154988804FF492
:101BC0004870C860A4F54870886001200874134903
:101BD00008600F48808881B20C48FFF7DAFD0C4896
:101BE000B0F9048008EBD870C0F34F010748FFF745
:101BF000D0FD01210548FFF747FDBDE8FC9F00002F
:101C000064330020E4260020580000200008004033
:101C1000D0260020000C01400000002054000020CD
:101C2000FFF7F0FB15E00B480078012811D10A48B6
:101C3000006808B9012000E0002007490860074B50
:101C4000074A084908480068FFF750FF002001498B
:101C50000870E8E738000020948121420000A0408D
:101C600000004844000048463400002002E008C854
:101C7000121F08C1002AFAD170477047002001E006
:101C800001C1121F002AFBD17047000010B56FF090
:101C90000400FFF7C1F90A4800680A49B0FBF1F0F7
:101CA000094908700846007800EB4001C1EBC010FC
:101CB0004FF6FF7101EAC0000449088010BD000022
:101CC0000000002000127A00280000202A000020D6
:101CD0000146114A12884A434FF0E0235A6100221C
:101CE0009A611A46126942F001021A6100BF4FF070
:101CF000E022106900F001021AB100F48032002ADB
:101D0000F5D04FF0E022126922F001024FF0E023FB
:101D10001A6100229A6170472A0000202DE9F041E3
:101D200004460D46002600220E4B20462946FEF7AB
:101D3000FCFB074600220C4BFEF7DEFA04460D467C
:101D400009E022462B4620462946FEF77CFB044646
:101D50000D46701C86B2082EF3DB20462946BDE8EE
:101D6000F0810000000070400000F03FFFF78EFFA0
:101D7000FFF70CF84FF4165000F006F8FEF7C0FF1E
:101D8000FEF776FEFFF74CFF10B586B00446012142
:101D900044F20400FFF752F84FF40070ADF814005D
:101DA00003208DF8160018208DF8170005A91C488F
:101DB000FEF700FF4FF48060ADF8140004208DF8AA
:101DC000170005A91648FEF7F5FE25208DF800003E
:101DD00003208DF801008DF8020001208DF803002A
:101DE0006846FEF7D9FF01940020ADF80800ADF871
:101DF0000A00ADF80C00ADF810000C20ADF80E0094
:101E000001A90848FFF7BCFD012240F22551054811
:101E1000FFF790FD01210348FFF756FD06B010BD06
:101E20000008014000380140481E00080000002062
:101E3000600000006C1C0008A81E00086000002064
:101E4000483D00007C1C000800A24A04000000007D
:101E5000000000000102030406070809000000005A
:101E6000010203040102030406070809020406082C
:101E70000000000000000000000000000000000062
:101E80000000000000000000000000000000000052
:101E90000000000000000000000000000000000042
:081EA00000000000000000003A
:0400000508000131BD
:00000001FF
