:020000040800F2
:10000000E8080020450100084D0100084F010008E4
:1000100051010008530100085501000800000000CC
:100020000000000000000000000000005701000870
:1000300059010008000000005B0100085D01000894
:100040005F0100085F0100085F0100085F01000810
:100050005F0100085F0100085F0100085F01000800
:10006000CD0A00081D0B0008710B00085F01000895
:100070005F0100085F0100085F0100085F010008E0
:100080005F0100085F0100085F0100085F010008D0
:100090005F0100085F0100085F0100085F010008C0
:1000A0005F0100085F0100085F0100085F010008B0
:1000B0000113000889150008A91700085F0100084E
:1000C0005F0100085F0100085F0100085F01000890
:1000D0005F010008291B00085F0100085F0100089C
:1000E0005F0100085F0100085F0100085F01000870
:1000F0005F0100085F0100085F0100085F01000860
:100100005F0100085F0100085F0100085F0100084F
:100110005F0100085F0100085F0100085F0100083F
:100120005F0100085F0100085F0100085F0100082F
:10013000DFF80CD000F0AEFB0048004715240008A3
:10014000E80800200648804706480047FEE7FEE72B
:10015000FEE7FEE7FEE7FEE7FEE7FEE7FEE7FEE777
:100160004912000831010008F0B480EA0102D40FFE
:100170004200B2EB410F02D20246084611464A0045
:1001800042D0C30DDDB2C1F3C752AD1A202D35DA0E
:10019000C1F3160141F4000204B15242C5F1200638
:1001A00002FA06F12A411044B3EBD05F23D0C4B168
:1001B000012DA0EBC35009DCF0BC4FF0004202EA75
:1001C000C352DBB200F5000000F0D8BA400000F1E5
:1001D000807000EBC350A0F1807040EAD1704900FC
:1001E00009E0490841EAC071A0EBC35000F50000E6
:1001F000400800EBC350F0BC00F0B7BA61420122E6
:1002000002EB4101001BF6E7F0BC704781F00041B2
:10021000AAE780F00040A7E780EA010210B502F0EB
:100220000043400022D04A001FD0010E01EB1261B2
:10023000C0F35600C2F3560240F4000042F400023C
:10024000A0FB022000047F39140400D0401C50EAB7
:10025000124001D44000491EC2B20C0604EBD0107B
:10026000401C4008802A02D003E0002010BD20F08E
:100270000100002900DA0020184310BD30B480EAE4
:10028000010202F0004530F0004221F0004013D09E
:1002900090B1C30DD40DC2F31601C0F31600E41AD9
:1002A00041F4000140F400027D34914201D3641C0A
:1002B00000E04900002C02DA30BC002070474FF407
:1002C00000000023914201D3891A034340084FEAFA
:1002D0004101F7D151B1914202D14FF0004105E007
:1002E00002D24FF0010101E06FF0010103EBC450B5
:1002F000284430BC00F039BA2DE9FE4F804681EA2F
:100300000300C00F0C46009021F0004123F000458F
:10031000B8EB0200A94105D24046214690461C4652
:100320000B46024623F00040104347D0270DC7F389
:100330000A00C3F30A510290401A019040286BDA78
:10034000C3F3130040F4801B0098924620B10023B1
:10035000D2EB030A63EB0B0B01985946C0F1400244
:10036000504600F0D1F906460D4650465946019ACE
:1003700000F0E9F910EB08006141002487EA11520E
:1003800084EAE7731A4340D0009A62B3019A012AC3
:100390004FEA075215DC001B61EB02014FF00042EF
:1003A00002EA0752CDE90042001C41F580113246B5
:1003B0002B4600F020FA03B0BDE8F08F40462146FE
:1003C000F9E7001B61EB0201001C41F580130018E6
:1003D0005B412018A2F5001747EB030140EAD570F6
:1003E000B6196D4111E06D084FEA360645EAC07551
:1003F0004FEA0752001B61EB0201001C41F580111E
:1004000049084FEA30000019514132462B4603B0EB
:10041000BDE8F04F00F0E0B9009801224000002351
:10042000D0EB020263EBE073009821464FEAE074E0
:10043000B8EB000061EB0401E9E783F000435BE700
:1004400081F0004158E72DE9FE4F81EA030404F0F2
:10045000004421F0004100944FF0000B23F00043D2
:1004600050EA01045ED052EA03045BD0C3F30A549D
:10047000C1F30A552C44A4F2F3340194A0FB0254B6
:10048000C1F3130141F48011C3F3130343F4801348
:1004900001FB024400FB034E840A970A44EA81549C
:1004A00047EA8357A4FB076802958D0A05FB078579
:1004B0004FEA932C04FB0C542705029D4FEA065883
:1004C00047EA1637B5EB08056EEB070C870E920E60
:1004D00047EA811742EA8312A7FB0201B6EB0B0140
:1004E00064EB00042B0D43EA0C335E1844EB1C5004
:1004F000DA465146E7FB0201C5F313044FEA0B331A
:1005000043EA14534FEA0432019C43EA0603A4F180
:100510000C040294009CCDE900B400F06CF903B027
:10052000BDE8F08F00200146F9E72DE9F04D81EAA2
:10053000030404F0004B21F0004514464FF0000A7C
:1005400023F0004150EA050220D054EA01021DD0F8
:10055000C5F30A570246C5F31303C1F31300C1F3F1
:100560000A5640F4801543F48013A7EB0608101BCD
:10057000D64608F2FD3873EB050002D308F10108F6
:1005800001E092185B41B8F1000F03DA0020014648
:10059000BDE8F08D00204FF48011064684460EE041
:1005A000171B73EB050705D3121B63EB050306430B
:1005B0004CEA010C49084FEA300092185B4150EABE
:1005C0000107EDD152EA030012D082EA040083EA67
:1005D0000501084305D0101BAB4106D201220023C0
:1005E00006E000224FF0004302E06FF001025310DA
:1005F0001AEB06004CEB085110EB0A0041EB0B0123
:10060000BDE8F04D00F0E8B8C10F80EAE0700844A2
:10061000CA079623002100F0B1B8962300221146A4
:1006200000F0ACB800F0004220F00040C10DC0F373
:10063000160040F400007F2901DA00207047962957
:1006400003DCC1F19601C84001E096398840002AD8
:10065000F4D04042704720F00040C10DC0F31600B6
:1006600040F400007F2901DA00207047962903DC5E
:10067000C1F19601C840704796398840704700F034
:10068000004230F000400AD0C10D01F56071C0F3A6
:10069000160042EA0151C20840071143704700208A
:1006A0000146704701F0004330B421F0004150EAA8
:1006B000010206D00A0DA2F56072C1F31301002AEF
:1006C00002DC30BC00207047440F44EAC104C10082
:1006D000E01830BC00EBC25000F047B830B50B4614
:1006E000014600202022012409E021FA02F59D4262
:1006F00005D303FA02F5491B04FA02F52844151E36
:10070000A2F10102F1DC30BD202A04DB203A00FA1C
:1007100002F1002070479140C2F1200320FA03F358
:10072000194390407047202A04DB203A21FA02F056
:100730000021704721FA02F3D040C2F1200291401B
:10074000084319467047202A06DBCB17203A41FAA6
:1007500002F043EAE07306E041FA02F3D040C2F14E
:10076000200291400843194670470029A8BF7047EE
:10077000401C490008BF20F00100704710B4B0FAD7
:1007800080FC00FA0CF050EA010404BF10BC704772
:1007900049B1CCF1200421FA04F411FA0CF118BF8C
:1007A000012121430843A3EB0C01CB1D4FEA00615B
:1007B0004FEA102042BF002010BC704700EBC3502E
:1007C00010440029A4BF10BC7047401C490008BF5A
:1007D00020F0010010BC704710B5141E73F1000426
:1007E00008DA401C41F1000192185B411A4301D123
:1007F00020F0010010BD2DE9F04D92469B4611B14D
:10080000B1FA81F202E0B0FA80F220329046FFF7AE
:100810007BFF04460F4640EA0A0041EA0B015346BB
:100820005A46084313D0114653EA010019D0C8F1C3
:1008300040025046FFF777FF05460E4650465946A0
:100840004246FFF761FF084305D0012004E020463F
:100850003946BDE8F08D0020054346EAE0762C439A
:1008600037430A986305E40AA0EB08000022FD0A5A
:1008700044EA47540A3002D500200146E9E7010561
:1008800010196941DDE9084500196941BDE8F04DDD
:10089000A2E70000064C074D06E0E06840F00103C7
:1008A00094E8070098471034AC42F6D3FFF744FCB5
:1008B000D0240008F02400082DE9F04F89B08246CA
:1008C00014469B464FF000090020089007905846B8
:1008D0001299FFF79BFC069056E0254604EBD57174
:1008E0004810FFF791FE274604EBD7710590A9EB5E
:1008F0006100FFF789FE80461399FFF78DFC0646DD
:100900000599FFF7BBFC0890089880F00040019023
:10091000FFF7B5FECDE9020101F01EFD00221D4BDF
:10092000CDE90401FFF7E8FC07463A460B460020F4
:100930001849FFF7FAFD0546FFF7B4FE0790DDE919
:100940000601FFF769FC05461299FFF70DFC1249F5
:1009500041F82900114800680921B0FBF1F8404630
:10096000FFF75BFE07465AF82910FFF787FC06469B
:100970004FF07E51FFF74AFC0546FFF76CFE084931
:1009800021F8190009F10109A145A6DB09B0BDE86C
:10099000F08F00000000F03F3C010020000000202C
:1009A000040200202DE9F04F89B0824614469B4690
:1009B0004FF0000900200890079058461299FFF761
:1009C00025FC069056E0254604EBD5714810FFF74C
:1009D0001BFE274604EBD7710590A9EB6100FFF7DA
:1009E00013FE80461399FFF717FC06460599FFF79B
:1009F00045FC0890089880F000400190FFF73FFE0A
:100A0000CDE9020101F0D0FC00221D4BCDE904012B
:100A1000FFF772FC07463A460B4600201849FFF7DD
:100A200084FD0546FFF73EFE0790DDE90601FFF76E
:100A3000F3FB05461299FFF797FB124941F829008D
:100A4000114800680921B0FBF1F84046FFF7E5FDC9
:100A500007465AF82910FFF711FC06464FF07E5161
:100A6000FFF7D4FB0546FFF7F6FD084921F819000A
:100A700009F10109A145A6DB09B0BDE8F08F00002E
:100A80000000F03F7C020020000000204403002012
:100A900008B50121102000F0D5FA0A20ADF80000B9
:100AA00010208DF8030003208DF8020069460648E7
:100AB00000F03CF90221044800F00CFA0821024839
:100AC00000F008FA08BD00000010014010B50A202F
:100AD00001F01CFC0648006828B9002005490860A0
:100AE000012005490870042000F08CF810BD0000BA
:100AF0000801234234000020380000201CB50420E7
:100B0000009000208DF804000C208DF805000120D5
:100B10008DF80600684600F07BF81CBD10B50A2071
:100B200001F0F4FB0748006840B907480068A0F5E9
:100B3000486005490860012004490870082000F059
:100B400061F810BD0C012342340000203800002061
:100B50001CB50820009000208DF804000C208DF8B2
:100B6000050001208DF80600684600F051F81CBD14
:100B700010B50A2001F0CAFB0748006840B90748D1
:100B8000006800F5486005490860012004490870C4
:100B9000102000F037F810BD10012342340000206F
:100BA000380000201CB51020009000208DF80400B3
:100BB0000C208DF8050001208DF80600684600F035
:100BC00027F81CBD10B500F089F90121084600F096
:100BD00039FA0421084600F089F80321042000F0C6
:100BE00085F80221042000F081F8FFF787FFFFF766
:100BF000AFFFFFF7D7FF00F09DF900F0ABF900F071
:100C0000B9F910BD014908607047000014040140A3
:100C1000002123498279002A3AD00A4612680368E3
:100C20009A430B461A600A1D126803689A430B1D0B
:100C30001A60027911440A6803681A430A60184A64
:100C40000832126803689A43154B08331A601A1D5C
:100C5000126803689A43124B0C331A604279102AC7
:100C60000ED11A1F126803681A430D4B08331A601D
:100C70001A1D126803681A43094B0C331A600DE001
:100C80000749427911440A6803681A430A6005E07B
:100C9000027911440A6803689A430A6070470000A9
:100CA0000004014008B50220ADF8000018208DF8BE
:100CB000030003208DF802006946024800F036F870
:100CC00008BD00000008014008B58020ADF8000014
:100CD00018208DF8030003208DF8020069460248B1
:100CE00000F024F808BD00000008014030B50022E3
:100CF0008B071C0F0F2303FA04F20B4B8C1053F8D5
:100D000024309343084C8D1044F8253023468C1032
:100D100053F824308C07240F00FA04F42343024CC8
:100D20008D1044F8253030BD080001402DE9F04118
:100D3000024600250026002000230024002791F809
:100D400003C00CF00F0591F803C00CF0100CBCF1BF
:100D5000000F03D091F802C04CEA050591F800C0DD
:100D6000BCF1000F31D0146800202BE04FF0010CD3
:100D70000CFA00F3B1F800C00CEA03069E4220D141
:100D800083004FF00F0C0CFA03F7BC4305FA03FC89
:100D90004CEA040491F803C0BCF1280F06D14FF0CF
:100DA000010C0CFA00FCC2F814C00AE091F803C070
:100DB000BCF1480F05D14FF0010C0CFA00FCC2F851
:100DC00010C0401C0828D1D31460B1F800C0BCF199
:100DD000FF0F34DD546800202EE000F1080C4FF0C6
:100DE000010808FA0CF3B1F800C00CEA03069E42B1
:100DF00021D183004FF00F0C0CFA03F7BC4305FA26
:100E000003FC4CEA040491F803C0BCF1280F05D19F
:100E100000F1080C08FA0CF8C2F8148091F803C02D
:100E2000BCF1480F07D100F1080C4FF0010808FA97
:100E30000CF8C2F81080401C0828CED35460BDE8DE
:100E4000F0810000F0B50A460023002400210025AF
:100E500000F00046B6F1004F02D11D4EF16901E0ED
:100E60001B4E7168C0F3034583B200F44016B6F51B
:100E7000401F08D121F07061154E766826F070662B
:100E8000134F7E6012E000F48016B6F5801F06D185
:100E9000032606FA05F4A14341F0706106E0460D11
:100EA000360103FA06F6B14341F0706122B1460DF6
:100EB000360103FA06F6314300F00046B6F1004F62
:100EC00002D1034EF16101E0014E7160F0BD0000FE
:100ED00000000140416170470161704708B5012180
:100EE000402000F0AFF81C20ADF8000048208DF83D
:100EF000030003208DF8020069460248FFF716FF41
:100F000008BD00000018014008B50121082000F0CC
:100F100099F82020ADF8000010208DF80300032080
:100F20008DF8020069460248FFF700FF08BD000087
:100F3000000C014008B508208DF8000002208DF853
:100F400001008DF8020001208DF80300684600F0D2
:100F500027F808BD08B509208DF8000002208DF89B
:100F600001008DF8020001208DF80300684600F0B2
:100F700017F808BD08B50A208DF8000002208DF88A
:100F800001008DF8020001208DF80300684600F092
:100F900007F808BD10B54FF4A06000F039F810BD97
:100FA00070B5002100230F22C47804B3154C2468C7
:100FB00004F4E064C4F5E064210AC1F10403CA400A
:100FC000447804FA03F184781440214309010E4C5B
:100FD0000678A155047804F01F050124AC4005787B
:100FE0006D11AD0005F1E025C5F8004109E0047878
:100FF00004F01F050124AC40044D0678761145F835
:10100000264070BD0CED00E000E400E080E100E06F
:1010100002490143024A1160704700000000FA05CE
:101020000CED00E029B1064AD2690243044BDA61B3
:1010300004E0034AD2698243014BDA617047000041
:101040000010024029B1064A92690243044B9A619A
:1010500004E0034A92698243014B9A6170470000A1
:101060000010024030B500210022002400232D4D45
:101070006D6805F00C0121B1042905D0082923D1A0
:1010800005E0294D056022E0274D05601FE0254D54
:101090006D6805F47012234D6D6805F480340225E7
:1010A00005EB92421CB9214D554305600BE01D4DE7
:1010B0006D6805F400351DB11C4D5543056002E017
:1010C000194D5543056002E0174D056000BF00BF94
:1010D000144D6D6805F0F0010909154D6B5C05684C
:1010E000DD4045600F4D6D6805F4E061090A104D63
:1010F0006B5C4568DD4085600A4D6D6805F46051A4
:10110000C90A0B4D6B5C4568DD40C560054D6D68D7
:1011100005F44041890B074D6B5CC568B5FBF3F5E1
:10112000056130BD0010024000127A0000093D0048
:10113000140000202400002010B500F001F810BDBC
:101140000CB50020019000903348006840F48030D6
:101150003149086000BF3048006800F4003000905A
:101160000198401C0190009818B90198B0F5A06F43
:10117000F1D12948006800F4003010B1012000903E
:1011800001E0002000900098012843D12348006826
:1011900040F01000214908600846006820F0030074
:1011A00008600846006840F0020008601A4840687D
:1011B000194948600846406848600846406840F45D
:1011C000806048600846406820F47C10486008460B
:1011D000406840F4E81048600846006840F08070BD
:1011E000086000BF0C48006800F000700028F9D0CB
:1011F0000948406820F003000749486008464068F5
:1012000040F00200486000BF0348406800F00C0056
:101210000828F9D10CBD0000001002400020024057
:10122000042808D14FF0E021096941F004014FF092
:10123000E022116107E04FF0E021096921F004018B
:101240004FF0E0221161704710B51348006840F07C
:1012500001001149086008464068104908400E49DD
:101260004860084600680E4908400B490860084677
:10127000006820F4802008600846406820F4FE00E2
:1012800048604FF41F008860FFF756FF4FF0006082
:101290000449086010BD0000001002400000FFF883
:1012A000FFFFF6FE08ED00E010B501210846FFF74C
:1012B000B9FE01210420FFF7C5FEFFF7E9FB00F0AE
:1012C0002DF9FFF7EFFC00F005F9082142F20F704D
:1012D00000F0EEF800F012F90821C80600F0B8FBA3
:1012E0000121880700F036FB01221146900700F02B
:1012F00054FB00214FF0804000F032FB10BD000095
:1013000010B50121880700F037FB00287ED0624825
:10131000007C30B1012814D0022879D003280FD1E5
:1013200052E000205D49088000214FF0804000F02D
:1013300017FB08215A48FFF7CDFD002059490860E6
:1013400091E056480088401C544908805248007873
:1013500028B955480068401C5349086004E05248C9
:101360000068401E504908604B48C0684B490988D6
:1013700088420ADD4D484949098830F8110000B219
:1013800045498880012008741DE04348806843492E
:10139000098888420BD841480088401E434931F8EB
:1013A000100000B23C498880022008740BE03B48E2
:1013B0000088322807DB3D48B0F8620000B23649A9
:1013C0008880032008744EE034480088401C33496C
:1013D00008803148007828B933480068401C3249F9
:1013E000086004E030480068401E2F4908602A4821
:1013F00080682A490988884207D82C48B0F86200DA
:1014000000B225498880022008742CE042E0FFE702
:1014100022480088401C214908801F48007828B9CC
:1014200021480068401C2049086004E01E4800680C
:10143000401E1D4908601848B0F902001749098884
:1014400088420CDD1448B0F9020014490988401A9A
:10145000164931F8100000B20F49888002E00020E0
:101460000D49087400BF00BF0B48808881B24FF05F
:10147000804000F003FB0848B0F9044004EBD4704E
:10148000C0F34F014FF0804000F0FAFA01218807C5
:1014900000F063FA10BD0000280100204400002085
:1014A000001001403C000020400000200402002009
:1014B0003EB505460C46ADF80450ADF8004000209E
:1014C000ADF80600ADF8020069464FF0804000F02C
:1014D000D9FA3EBD08B54FF4A060FFF799FD1C2076
:1014E0008DF8000000208DF801008DF80200012029
:1014F0008DF803006846FFF753FD08BD1FB5702047
:10150000ADF800000120ADF802000220ADF808009F
:101510006946400700F04AFA1FBD000010B50121DE
:101520000846FFF78FFD01210148FFF78BFC10BD36
:101530000002180010B501210220FFF773FD012100
:101540000520FFF77FFD00F021FDFFF7BDFB00F058
:1015500005F9082142F20F7000F0ECF800F012F9E2
:101560000821084800F081FA0121064800F0F2F94C
:1015700001221146034800F010FA0021014800F052
:10158000EFF910BD0004004010B50121624800F0E1
:10159000F3F900287DD06148007C30B1012813D0D8
:1015A000022878D003280ED151E000205C49088041
:1015B0000021594800F0D4F920215A48FFF78AFC4D
:1015C00000205949086091E055480088401C544962
:1015D00008805248007828B954480068401C534994
:1015E000086004E051480068401E504908604B48BC
:1015F000C0684B49098888420ADD4D484849098836
:1016000030F8110000B245498880012008741DE0BF
:10161000424880684249098888420BD8404800887F
:10162000401E434931F8100000B23C498880022036
:1016300008740BE03A480088322807DB3C48B0F8D1
:10164000620000B235498880032008744EE03448B7
:101650000088401C324908803048007828B9334857
:101660000068401C3149086004E030480068401EB2
:101670002E4908602948806829490988884207D886
:101680002B48B0F8620000B2244988800220087418
:101690002CE040E0FFE722480088401C20490880F9
:1016A0001E48007828B921480068401C1F4908607E
:1016B00004E01E480068401E1C4908601748B0F945
:1016C00002001749098888420CDD1448B0F902006D
:1016D00013490988401A164931F8100000B20F4921
:1016E000888002E000200D49087400BF00BF0B484D
:1016F000808881B2084800F0C1F90848B0F9044078
:1017000004EBD470C0F34F01034800F0B9F9012194
:10171000014800F022F910BD0004004068020020DA
:101720005000002000080140480000204C0000202C
:10173000440300203EB505460C46ADF80450ADF814
:1017400000400020ADF80600ADF8020069460248EE
:1017500000F098F93EBD00000004004008B54FF4C9
:10176000A060FFF755FC1D208DF8000000208DF8CB
:1017700001008DF8020001208DF803006846FFF794
:101780000FFC08BD1FB57020ADF800000120ADF8BA
:1017900002000220ADF808006946024800F006F990
:1017A0001FBD00000004004010B50121624800F098
:1017B000E3F800287DD06148007C30B1012813D0C7
:1017C000022878D003280ED151E000205C4908801F
:1017D0000021594800F0C4F840215A48FFF77AFB2D
:1017E00000205949086091E055480088401C544940
:1017F00008805248007828B954480068401C534972
:10180000086004E051480068401E504908604B4899
:10181000C0684B49098888420ADD4D484849098813
:1018200030F8110000B245498880012008741DE09D
:10183000424880684249098888420BD8404800885D
:10184000401E434931F8100000B23C498880022014
:1018500008740BE03A480088322807DB3C48B0F8AF
:10186000620000B235498880032008744EE0344895
:101870000088401C324908803048007828B9334835
:101880000068401C3149086004E030480068401E90
:101890002E4908602948806829490988884207D864
:1018A0002B48B0F8620000B22449888002200874F6
:1018B0002CE040E0FFE722480088401C20490880D7
:1018C0001E48007828B921480068401C1F4908605C
:1018D00004E01E480068401E1C4908601748B0F923
:1018E00002001749098888420CDD1448B0F902004B
:1018F00013490988401A164931F8100000B20F49FF
:10190000888002E000200D49087400BF00BF0B482A
:10191000808881B2084800F0B1F80848B0F9044066
:1019200004EBD470C0F34F01034800F0A9F8012183
:10193000014800F012F810BD00080040A803002084
:101940005C000020000C01405400002058000020E2
:1019500084040020CA4302827047CA43028270474F
:1019600021B1028842F00102028004E002884FF6B1
:10197000FE731A400280704730B5024600200023F3
:101980000024158A05EA0103958905EA010413B1CB
:101990000CB1012000E0002030BD1AB183890B4357
:1019A000838102E083898B438381704770B5002473
:1019B00000220023058C4FF6EF7635400584028C1B
:1019C0008388048B48F6FF752C404FF6FF452C406A
:1019D0000D884FF6FF7606EA05252C434FF6DF7596
:1019E0002A400D8906EA05152A434D8806EA0515A1
:1019F0002A43154DA84202D0144DA8421DD14FF6DE
:101A00007F752A404D894FF6FF7606EA05152A4371
:101A10004FF6BF752A408D8806EA05152A434FF612
:101A2000FF352B404FF2FF752B408D8906EA850567
:101A30002B43CD8906EA85052B4383800483CD881B
:101A40000587028470BD0000002C01400034014075
:101A50000A460021018B4FF2FF7319404FF6FF73C6
:101A600003EA02231943018370470A460021818B50
:101A70004FF6F77319401143818370478185704792
:101A800001877047002202881D4B98420ED01D4BE3
:101A900098420BD0B0F1804F08D01B4B984205D034
:101AA0001A4B984202D01A4B984204D14FF68F73CA
:101AB0001A404B881A43174B984207D0164B98424E
:101AC00004D04FF6FF431A40CB881A4302808B881C
:101AD00083850B8803850A4B98420BD0094B9842AB
:101AE00008D00E4B984205D00D4B984202D00D4BBA
:101AF000984201D10B7A038601238382704700004C
:101B0000002C014000340140000400400008004067
:101B1000000C004000100040001400400040014054
:101B2000004401400048014010B5002440F2255116
:101B30001C4800F049F810B31A4800F001F9C4B28B
:101B40001948008800F40040C8B91748008800F41C
:101B5000804060B10A2C03D000201349088020E0A7
:101B60001148008840F400400F49088019E00D2C0E
:101B700006D10D48008840F480400B49088010E0F1
:101B800009480088C0F30D0008490C540648008835
:101B9000401C0549088008460088C72801DD002050
:101BA000088010BD00380140300000206000002097
:101BB00021B1828942F40052828104E082894DF68B
:101BC000FF731A408281704770B5024600240023DB
:101BD0000025002040F66A16B14200D100BFC1F3D3
:101BE000421501F01F03012606FA03F3012D02D16D
:101BF0009689334006E0022D02D1168A334001E077
:101C0000968A33400C12012606FA04F416883440F2
:101C100013B10CB1012000E0002070BDF0B5034607
:101C2000002400260025002040F66A17B94200D1A2
:101C300000BF1846C1F3421401F01F06012707FA3E
:101C400006F5012C01D10C3004E0022C01D110303A
:101C500000E014301AB107682F43076002E00768FC
:101C6000AF430760F0BD00002DE9F04786B00546A0
:101C70000E460024A24600BFA1460027B08900B14D
:101C800000BF2F462C8A4CF6FF700440F0880443B6
:101C90002C82AC894EF6F3100440B0883189084399
:101CA000718908430443AC81AC8A4FF6FF4004407D
:101CB000B0890443AC8201A8FFF7D4F91F488742DA
:101CC00002D1DDF810A001E0DDF80CA0A88900F435
:101CD000004040B10AEBCA0000EB0A10316849002D
:101CE000B0FBF1F807E00AEBCA0000EB0A1031681C
:101CF0008900B0FBF1F86420B8FBF0F00401200982
:101D0000642101FB1089A88900F4004040B1322011
:101D100000EBC900B0FBF1F000F00700044308E05D
:101D2000322000EB09106421B0FBF1F000F00F004D
:101D300004432C8106B0BDE8F08700000038014064
:101D400001468888C0F308007047000070B504465B
:101D50000D460026012D00D101264EB1012E0CD1D9
:101D6000B4F1804F03D108210548FFF7B3F804E030
:101D7000B4F1804F00D100E000BF00BF70BD000093
:101D8000001001402DE9FC5F04460E4615461F4633
:101D9000334632223F494048CDE90057FEF78CFDDB
:101DA0003E480068241A01218807FFF7CFFF002C66
:101DB00008DA01203A49087002213A48FFF78AF808
:101DC000644206E000203649087002213548FFF7DA
:101DD00083F820B232494880012C1ED10120C8600E
:101DE000314800680921B0FBF1FB5846FEF715FCAD
:101DF00082462946FEF742FA81464FF07E51FEF7B1
:101E000005FA8046FEF70EFC00B2254988800220C4
:101E1000087401202549086024E01CB3642C13DCFD
:101E20001C48008800B21E498880204604EBD0710F
:101E300049101B4AD1601046C068114688600120D5
:101E400008741A4908600DE01248008800B214496D
:101E500088803220C860A4F13200886001200874B4
:101E6000124908600E48808881B24FF08040FFF729
:101E700005FE0B48B0F9048008EBD870C0F34F01A1
:101E80004FF08040FFF7FAFD01218807FFF768FD5A
:101E9000BDE8FC9F040200203C010020400000201F
:101EA0002801002000100140000000203C0000201C
:101EB0001927FFF7F9F9FFF73DFB50E028480088A4
:101EC00000F4004000284AD02648007830386421C9
:101ED000484324494978303901EB810100EB410145
:101EE0002048807830380C181E48C078303864217B
:101EF00048431C490979303901EB810100EB41016C
:101F00001848407930380D1816488079A0F130080B
:101F10001448C079A0F130067C437D43B8F1000F2E
:101F200001D1644200E000BF0EB96D4200E000BF85
:101F300021460DA000F0FEF829460EA000F0FAF8A8
:101F40000F4B104A10492046FFF71CFF0C4B0D4A5F
:101F50000D49284600F058F8002001490880ADE7F7
:101F60003000002060000020585F535445503A254F
:101F7000640D0A00595F535445503A25640D0A0018
:101F80000000A040000048440000FA4508B50121C7
:101F90000420FFF757F82820ADF8000010208DF836
:101FA000030003208DF8020069460648FEF7BEFED6
:101FB00008210448FEF78EFF20210248FEF78AFF21
:101FC00008BD00000008014070B504460D4600261B
:101FD000012D00D101264EB1012E0FD108488442B7
:101FE00003D120210748FEF775FF07E0044884422B
:101FF00003D120210348FEF76FFF00BF00BF70BD73
:1020000000040040000801402DE9FC5F04460E4634
:1020100015461F46334632223E493F48CDE9005718
:10202000FEF7C0FC3D480068241A01213C48FFF738
:10203000CBFF002C08DA01203A49087008213A4801
:10204000FEF748FF644206E0002036490870082188
:102050003548FEF741FF20B232494880012C1ED19D
:102060000120C860314800680921B0FBF1FB5846E7
:10207000FEF7D3FA82462946FEF700F981464FF073
:102080007E51FEF7C3F88046FEF7CCFA00B2254930
:1020900088800220087401202549086024E01CB3D0
:1020A000642C13DC1B48008800B21E49888020463F
:1020B00004EBD07149101B4AD1601046C06811462C
:1020C0008860012008741A4908600DE011480088F2
:1020D00000B2144988803220C860A4F132008860C0
:1020E00001200874124908600E48808881B20C48AB
:1020F000FFF7C4FC0B48B0F9048008EBD870C0F3BC
:102100004F010748FFF7BAFC01210548FFF728FCFB
:10211000BDE8FC9F440300207C0200204C0000200E
:102120000004004068020020000801400000002078
:10213000480000200FB4054B10B503A9044A0298CB
:1021400000F018F810BC5DF814FB0000F92300083B
:102150002C00002002E008C8121F08C1002AFAD192
:1021600070477047002001E001C1121F002AFBD117
:10217000704700002DE9FF4F89B09B4604460025BB
:1021800006E025280BD05A460B999047641C6D1C1D
:1021900020780028F5D10DB02846BDE8F08F002743
:1021A000B8460122474900E0074314F8013F203BAD
:1021B00002FA03F00842F7D120782E2819D114F83A
:1021C000010F47F004072A280ED06FF02F02207865
:1021D000A0F1300109290CD808EB880102EB41017C
:1021E00000EB0108641CF2E70A98641C50F8048BA9
:1021F0000A9020780028CED0642808D0692806D01C
:1022000075281ED05A460B9990476D1C58E00A99C4
:102210004FF00A0901C90A91002802DA40422D2133
:1022200002E0390504D52B218DF82010012103E0AF
:10223000F90704D02021F7E78A4608AE0DE0002117
:10224000FAE70A994FF00A0901C90A91F7E74946E6
:10225000FEF744FA303106F8011D0028F7D1ADEB46
:10226000060000F12009780701D44FF00108C845A5
:1022700002DDA8EB090000E000208046002706E010
:1022800008A85A46C05D0B9990476D1C7F1C5745A6
:10229000F6DB04E030205A460B9990476D1CB8F1EC
:1022A0000001A8F10108F5DC05E016F8010B5A461B
:1022B0000B9990476D1CB9F10001A9F10109F4DCFB
:1022C000641C65E70928010010B56FF00400FEF7F3
:1022D000A7FF0A4800680A49B0FBF1F009490870F5
:1022E0000846007800EB4001C1EBC0104FF6FF71CB
:1022F00001EAC0000449088010BD00000000002071
:1023000000127A00280000202A0000200146114A0D
:1023100012884A434FF0E0235A6100229A611A461C
:10232000126942F001021A6100BF4FF0E022106909
:1023300000F001021AB100F48032002AF5D04FF00B
:10234000E022126922F001024FF0E0231A6100221C
:102350009A6170472A0000202DE9F04104460D469D
:10236000002600220E4B20462946FEF7DEF80746DF
:1023700000220C4BFDF7C0FF04460D4609E0224643
:102380002B4620462946FEF75EF804460D46701C93
:1023900086B2082EF3DB20462946BDE8F081000016
:1023A000000070400000F03F2DE9F04104460D466A
:1023B000002600220E4B20462946FEF7B6F80746B7
:1023C00000220C4BFDF798FF04460D4609E022461B
:1023D0002B4620462946FEF736F804460D46701C6B
:1023E00086B2082EF3DB20462946BDE8F0810000C6
:1023F000000070400000F03F00BF054A128802F064
:102400004002002AF9D0C2B2014B1B1D1A8070474E
:1024100000380140FFF758FFFEF7BCFD4FF416509F
:1024200000F006F8FEF770FDFEF7CCFBFFF740FD6D
:1024300010B586B00446012144F20400FEF702FE06
:102440004FF40070ADF8140003208DF8160018202A
:102450008DF8170005A91C48FEF768FC4FF4806052
:10246000ADF8140004208DF8170005A91648FEF7F2
:102470005DFC25208DF8000003208DF801008DF80B
:10248000020001208DF803006846FEF789FD0194E3
:102490000020ADF80800ADF80A00ADF80C00ADF86A
:1024A00010000C20ADF80E0001A90848FFF7DCFB76
:1024B000012240F225510548FFF7B0FB01210348F6
:1024C000FFF776FB06B010BD000801400038014060
:1024D000F0240008000000206000000054210008E3
:1024E00050250008600000208808000064210008D2
:1024F00000A24A04000000000000000001020304E2
:102500000607080900000000010203040102030499
:102510000607080902040608000000000000000089
:1025200000000000000000000000000000000000AB
:10253000000000000000000000000000000000009B
:10254000000000000000000000000000000000008B
:0400000508000131BD
:00000001FF
