:020000040800F2
:1000000008180020450100084D0100084F010008B4
:1000100051010008530100085501000800000000CC
:100020000000000000000000000000005701000870
:1000300059010008000000005B0100085D01000894
:100040005F0100085F0100085F0100085F01000810
:100050005F0100085F0100085F0100085F01000800
:100060007D0A0008B10A0008F50A00085F010008CF
:100070005F0100085F0100085F0100085F010008E0
:100080005F0100085F0100085F0100085F010008D0
:100090005F0100085F0100085F0100085F010008C0
:1000A0005F0100085F0100085F0100085F010008B0
:1000B000791000085F0100085F0100085F01000877
:1000C0005F0100085F0100085F0100085F01000890
:1000D0005F010008511500085F0100085F0100087A
:1000E0005F0100085F0100085F0100085F01000870
:1000F0005F0100085F0100085F0100085F01000860
:100100005F0100085F0100085F0100085F0100084F
:100110005F0100085F0100085F0100085F0100083F
:100120005F0100085F0100085F0100085F0100082F
:10013000DFF80CD000F004FC00480047E91B000881
:10014000081800200648804706480047FEE7FEE7FB
:10015000FEE7FEE7FEE7FEE7FEE7FEE7FEE7FEE777
:10016000CD0F000831010008F0B480EA0102D40F7D
:100170004200B2EB410F02D20246084611464A0045
:1001800042D0C30DDDB2C1F3C752AD1A202D35DA0E
:10019000C1F3160141F4000204B15242C5F1200638
:1001A00002FA06F12A411044B3EBD05F23D0C4B168
:1001B000012DA0EBC35009DCF0BC4FF0004202EA75
:1001C000C352DBB200F5000000F02EBB400000F18E
:1001D000807000EBC350A0F1807040EAD1704900FC
:1001E00009E0490841EAC071A0EBC35000F50000E6
:1001F000400800EBC350F0BC00F00DBB614201228F
:1002000002EB4101001BF6E7F0BC704781F00041B2
:10021000AAE780F00040A7E780EA010210B502F0EB
:100220000043400022D04A001FD0010E01EB1261B2
:10023000C0F35600C2F3560240F4000042F400023C
:10024000A0FB022000047F39140400D0401C50EAB7
:10025000124001D44000491EC2B20C0604EBD0107B
:10026000401C4008802A02D003E0002010BD20F08E
:100270000100002900DA0020184310BD30B480EAE4
:10028000010202F0004530F0004221F0004013D09E
:1002900090B1C30DD40DC2F31601C0F31600E41AD9
:1002A00041F4000140F400027D34914201D3641C0A
:1002B00000E04900002C02DA30BC002070474FF407
:1002C00000000023914201D3891A034340084FEAFA
:1002D0004101F7D151B1914202D14FF0004105E007
:1002E00002D24FF0010101E06FF0010103EBC450B5
:1002F000284430BC00F08FBA2DE9FE4F804681EAD9
:100300000300C00F0C46009021F0004123F000458F
:10031000B8EB0200A94105D24046214690461C4652
:100320000B46024623F00040104347D0270DC7F389
:100330000A00C3F30A510290401A019040286BDA78
:10034000C3F3130040F4801B0098924620B10023B1
:10035000D2EB030A63EB0B0B01985946C0F1400244
:10036000504600F027FA06460D4650465946019A77
:1003700000F03FFA10EB08006141002487EA1152B7
:1003800084EAE7731A4340D0009A62B3019A012AC3
:100390004FEA075215DC001B61EB02014FF00042EF
:1003A00002EA0752CDE90042001C41F580113246B5
:1003B0002B4600F076FA03B0BDE8F08F40462146A8
:1003C000F9E7001B61EB0201001C41F580130018E6
:1003D0005B412018A2F5001747EB030140EAD570F6
:1003E000B6196D4111E06D084FEA360645EAC07551
:1003F0004FEA0752001B61EB0201001C41F580111E
:1004000049084FEA30000019514132462B4603B0EB
:10041000BDE8F04F00F036BA0098012240000023FA
:10042000D0EB020263EBE073009821464FEAE074E0
:10043000B8EB000061EB0401E9E783F000435BE700
:1004400081F0004158E72DE9FE4F81EA030404F0F2
:10045000004421F0004100944FF0000B23F00043D2
:1004600050EA01045ED052EA03045BD0C3F30A549D
:10047000C1F30A552C44A4F2F3340194A0FB0254B6
:10048000C1F3130141F48011C3F3130343F4801348
:1004900001FB024400FB034E840A970A44EA81549C
:1004A00047EA8357A4FB076802958D0A05FB078579
:1004B0004FEA932C04FB0C542705029D4FEA065883
:1004C00047EA1637B5EB08056EEB070C870E920E60
:1004D00047EA811742EA8312A7FB0201B6EB0B0140
:1004E00064EB00042B0D43EA0C335E1844EB1C5004
:1004F000DA465146E7FB0201C5F313044FEA0B331A
:1005000043EA14534FEA0432019C43EA0603A4F180
:100510000C040294009CCDE900B400F0C2F903B0D1
:10052000BDE8F08F00200146F9E72DE9F04D81EAA2
:10053000030404F0004B21F0004514464FF0000A7C
:1005400023F0004150EA050220D054EA01021DD0F8
:10055000C5F30A570246C5F31303C1F31300C1F3F1
:100560000A5640F4801543F48013A7EB0608101BCD
:10057000D64608F2FD3873EB050002D308F10108F6
:1005800001E092185B41B8F1000F03DA0020014648
:10059000BDE8F08D00204FF48011064684460EE041
:1005A000171B73EB050705D3121B63EB050306430B
:1005B0004CEA010C49084FEA300092185B4150EABE
:1005C0000107EDD152EA030012D082EA040083EA67
:1005D0000501084305D0101BAB4106D201220023C0
:1005E00006E000224FF0004302E06FF001025310DA
:1005F0001AEB06004CEB085110EB0A0041EB0B0123
:10060000BDE8F04D00F03EB9C10F80EAE07008444B
:10061000CA079623002100F007B99623002211464D
:1006200000F002B90EB5C10F80EAE0700844CA07B5
:10063000002140F233438DE80E000A460B4600F0DD
:1006400030F903B000BD0EB540F2334102910021F4
:10065000CDE900110A460B4600F023F903B000BDB6
:1006600000F0004220F00040C10DC0F3160040F43D
:1006700000007F2901DA00207047962903DCC1F1D0
:100680009601C84001E096398840002AF4D04042E3
:10069000704720F00040C10DC0F3160040F4000088
:1006A0007F2901DA00207047962903DCC1F1960109
:1006B000C840704796398840704770B5C1F30A52F8
:1006C00001F000450024C1F3130140F2FF3341F46F
:1006D00080119A4201DA002070BD40F233439A4201
:1006E000A2F2334203DC524200F073F800E0904083
:1006F0002C43F1D0404270BDC1F30A5210B5C1F392
:10070000130140F2FF3341F480119A4201DA0020D4
:1007100010BD40F233439A42A2F2334203DC52420C
:1007200000F057F810BD904010BD00F0004230F0CE
:1007300000400AD0C10D01F56071C0F3160042EA15
:100740000151C2084007114370470020014670471D
:1007500001F0004330B421F0004150EA010206D01C
:100760000A0DA2F56072C1F31301002A02DC30BC4D
:1007700000207047440F44EAC104C100E01830BCB7
:1007800000EBC25000F047B830B50B4601460020E0
:100790002022012409E021FA02F59D4205D303FA43
:1007A00002F5491B04FA02F52844151EA2F10102C4
:1007B000F1DC30BD202A04DB203A00FA02F10020EF
:1007C00070479140C2F1200320FA03F3194390408F
:1007D0007047202A04DB203A21FA02F000217047FA
:1007E00021FA02F3D040C2F1200291400843194699
:1007F0007047202A06DBCB17203A41FA02F043EA81
:10080000E07306E041FA02F3D040C2F120029140C9
:100810000843194670470029A8BF7047401C49008B
:1008200008BF20F00100704710B4B0FA80FC00FA55
:100830000CF050EA010404BF10BC704749B1CCF180
:10084000200421FA04F411FA0CF118BF012121430C
:100850000843A3EB0C01CB1D4FEA00614FEA1020C7
:1008600042BF002010BC704700EBC3501044002969
:10087000A4BF10BC7047401C490008BF20F0010015
:1008800010BC704710B5141E73F1000408DA401C48
:1008900041F1000192185B411A4301D120F001009F
:1008A00010BD2DE9F04D92469B4611B1B1FA81F28F
:1008B00002E0B0FA80F220329046FFF77BFF044658
:1008C0000F4640EA0A0041EA0B0153465A460843E4
:1008D00013D0114653EA010019D0C8F14002504626
:1008E000FFF777FF05460E46504659464246FFF74A
:1008F00061FF084305D0012004E020463946BDE8E9
:10090000F08D0020054346EAE0762C4337430A98F1
:100910006305E40AA0EB08000022FD0A44EA4754FC
:100920000A3002D500200146E9E7010510196941A6
:10093000DDE9084500196941BDE8F04DA2E7000076
:10094000064C074D06E0E06840F0010394E807001C
:1009500098471034AC42F6D3FFF7EEFBC81D0008F1
:10096000E81D00082DE9F04F89B0824614469B46E9
:100970004FF0000900200890079058461299FFF7A1
:1009800045FC069056E0254604EBD5714810FFF76C
:100990003BFE274604EBD7710590A9EB6100FFF7FA
:1009A00033FE80461399FFF737FC06460599FFF79B
:1009B00065FC0890089880F000400190FFF7B5FEB4
:1009C000CDE9020101F0DAF800221D4BCDE9040166
:1009D000FFF792FC07463A460B4600201849FFF7FE
:1009E000A4FD0546FFF7B4FE0790DDE90601FFF719
:1009F00013FC05461299FFF7B7FB124941F829008D
:100A0000114800680921B0FBF1F84046FFF705FEE8
:100A100007465AF82910FFF731FC06464FF07E5181
:100A2000FFF7F4FB0546FFF734FE084921F81900EB
:100A300009F10109A145A6DB09B0BDE8F08F00006E
:100A40000000F03F4801002000000020C80D0020F9
:100A500008B50121102000F0B7F90A20ADF8000018
:100A600010208DF8030003208DF80200694602482B
:100A700000F07AF808BD00000010014010B50A200F
:100A800001F056F80848006848B90848006808B9F5
:100A9000012000E000200549086001F039F9042038
:100AA00000F04AF810BD0000080123429481214261
:100AB00010B50D48006898B90C48006808B90120C5
:100AC00000E000200949086000214FF0804000F05C
:100AD000E8FC0748008881B24FF0804000F0E3FC5A
:100AE000082000F029F810BD0C0123429481214216
:100AF0005A00002010B50D48006898B90C480068ED
:100B000008B9012000E00020094908600948008870
:100B100081B24FF0804000F0C4FC00214FF08040D3
:100B200000F0C1FC102000F007F810BD10012342B6
:100B3000948121425C000020014908607047000058
:100B40001404014008B50220ADF8000018208DF80B
:100B5000030003208DF802006946024800F004F803
:100B600008BD0000000801402DE9F04102460025C3
:100B70000026002000230024002791F803C00CF079
:100B80000F0591F803C00CF0100CBCF1000F03D05E
:100B900091F802C04CEA050591F800C0BCF1000FC5
:100BA00031D0146800202BE04FF0010C0CFA00F358
:100BB000B1F800C00CEA03069E4220D183004FF03A
:100BC0000F0C0CFA03F7BC4305FA03FC4CEA0404CF
:100BD00091F803C0BCF1280F06D14FF0010C0CFABC
:100BE00000FCC2F814C00AE091F803C0BCF1480F41
:100BF00005D14FF0010C0CFA00FCC2F810C0401CEB
:100C00000828D1D31460B1F800C0BCF1FF0F34DD67
:100C1000546800202EE000F1080C4FF0010808FA9B
:100C20000CF3B1F800C00CEA03069E4221D1830008
:100C30004FF00F0C0CFA03F7BC4305FA03FC4CEA27
:100C4000040491F803C0BCF1280F05D100F1080C91
:100C500008FA0CF8C2F8148091F803C0BCF1480FF0
:100C600007D100F1080C4FF0010808FA0CF8C2F89F
:100C70001080401C0828CED35460BDE8F0810000ED
:100C8000F0B50A46002300240021002500F00046AC
:100C9000B6F1004F02D11D4EF16901E01B4E7168A3
:100CA000C0F3034583B200F44016B6F5401F08D1E7
:100CB00021F07061154E766826F07066134F7E60E5
:100CC00012E000F48016B6F5801F06D1032606FA5E
:100CD00005F4A14341F0706106E0460D360103FAC8
:100CE00006F6B14341F0706122B1460D360103FAB8
:100CF00006F6314300F00046B6F1004F02D1034E34
:100D0000F16101E0014E7160F0BD000000000140A2
:100D1000416170470161704710B54FF4A06000F069
:100D200039F810BD70B5002100230F22C47804B338
:100D3000154C246804F4E064C4F5E064210AC1F1B0
:100D40000403CA40447804FA03F184781440214330
:100D500009010E4C0678A155047804F01F05012402
:100D6000AC4005786D11AD0005F1E025C5F80041F6
:100D700009E0047804F01F050124AC40044D067816
:100D8000761145F8264070BD0CED00E000E400E06F
:100D900080E100E002490143024A1160704700000F
:100DA0000000FA050CED00E029B1064AD2690243C1
:100DB000044BDA6104E0034AD2698243014BDA61F1
:100DC000704700000010024029B1064A92690243B0
:100DD000044B9A6104E0034A92698243014B9A6191
:100DE000704700000010024030B5002100220024AE
:100DF00000232D4D6D6805F00C0121B1042905D0AB
:100E0000082923D105E0294D056022E0274D056022
:100E10001FE0254D6D6805F47012234D6D6805F4D3
:100E20008034022505EB92421CB9214D55430560E3
:100E30000BE01D4D6D6805F400351DB11C4D55438B
:100E4000056002E0194D5543056002E0174D05604D
:100E500000BF00BF144D6D6805F0F0010909154D84
:100E60006B5C0568DD4045600F4D6D6805F4E06121
:100E7000090A104D6B5C4568DD4085600A4D6D6860
:100E800005F46051C90A0B4D6B5C4568DD40C560D7
:100E9000054D6D6805F44041890B074D6B5CC568D5
:100EA000B5FBF3F5056130BD0010024000127A0079
:100EB00000093D00140000202400002010B500F0BF
:100EC00001F810BD0CB50020019000903348006877
:100ED00040F480303149086000BF3048006800F4B9
:100EE000003000900198401C0190009818B90198BA
:100EF000B0F5A06FF1D12948006800F4003010B1BE
:100F00000120009001E0002000900098012843D1CA
:100F10002348006840F01000214908600846006836
:100F200020F0030008600846006840F002000860F6
:100F30001A484068194948600846406848600846B1
:100F4000406840F4806048600846406820F47C10A7
:100F500048600846406840F4E81048600846006869
:100F600040F08070086000BF0C48006800F000701E
:100F70000028F9D00948406820F00300074948607C
:100F80000846406840F00200486000BF03484068DF
:100F900000F00C000828F9D10CBD00000010024040
:100FA00000200240042808D14FF0E021096941F0F7
:100FB00004014FF0E022116107E04FF0E0210969E0
:100FC00021F004014FF0E0221161704710B5134881
:100FD000006840F001001149086008464068104967
:100FE00008400E494860084600680E4908400B4911
:100FF00008600846006820F48020086008464068C1
:1010000020F4FE0048604FF41F008860FFF756FF91
:101010004FF000600449086010BD0000001002405D
:101020000000FFF8FFFFF6FE08ED00E010B501211B
:101030000846FFF7B9FE01210420FFF7C5FE00F0C6
:1010400095F9FFF705FDFFF77DFD00F06BF908212D
:101050004FF6FF7000F054F900F078F90821C80647
:1010600000F00EFA0121880700F08CF901221146E8
:10107000900700F0AAF910BD10B50121880700F013
:1010800093F900287BD07548007C30B1012819D035
:10109000022875D0032814D163E07148016871A05B
:1010A00000F05AFC00207449088000214FF0804075
:1010B00000F06EF908217148FFF72AFE0020704900
:1010C0000860B2E06C480088401C6B4908806348A7
:1010D000007828B962480068401C6149086004E053
:1010E0005F480068401E5E4908605C48C06862490D
:1010F000098888420ADD63485F49098830F8110091
:1011000000B2564988800120087429E0534880685D
:1011100059490988884216D857480088401E5949BD
:1011200031F8100000B24D4988804D48016856A042
:1011300000F012FC4A48016858A000F00DFC0220A3
:10114000464908740CE04C480088B0F5487F07DB3E
:101150004C48B0F83E0600B240498880032008742D
:1011600063E045480088401C434908803B480078BC
:1011700038B93B480068401C3949086006E06BE01C
:1011800018E037480068401E3549086033488068D9
:101190003949098888420CD83748018844A000F0B2
:1011A000DBFB3848B0F83E0600B22C4988800220AC
:1011B00008743AE030480088401C2F4908802748CE
:1011C000007828B926480068401C2549086004E0DA
:1011D00023480068401E224908602048B0F90200F8
:1011E0002549098888420CDD1C48B0F902002249D3
:1011F0000988401A234931F8100000B21749888045
:1012000012E01648B0F902102DA000F0A5FB1A4814
:10121000018830A000F0A0FB1148016833A000F065
:101220009BFB00200D49087400BF00BF0B4880885D
:1012300081B24FF0804000F030F90848B0F9044026
:1012400004EBD470C0F34F014FF0804000F027F959
:101250000121880700F099F810BD0000340100203A
:10126000640000200D0A53544F505F585F706F7335
:101270003A25640D0A0D0A006800002000100140A4
:1012800060000020C80D00200D0A585F706F735F6A
:10129000414343454C3A25640D0A0000444543450B
:1012A0004C5F585F706F733A25640D0A00000000B0
:1012B00052554E2D3E444543454C3A25640D0A0097
:1012C000746F74616C5F636F756E743A25640D0A98
:1012D00000000000444543454C5F737465705F63D4
:1012E0006F756E743A25640D0A000000585F706FC8
:1012F000735F444543454C3A25640D0A00000000E5
:101300003EB505460C46ADF80450ADF8004000204F
:10131000ADF80600ADF8020069464FF0804000F0DD
:10132000C5F83EBD08B54FF4A060FFF733FD1C20A3
:101330008DF8000000208DF801008DF802000120DA
:101340008DF803006846FFF7EDFC08BD1FB570205F
:10135000ADF800000120ADF802000220ADF8080051
:101360006946400700F03AF81FBD000010B50121A2
:101370000846FFF729FD01210148FFF781FC10BD58
:1013800000021800CA4302827047CA4302827047B3
:1013900021B1028842F00102028004E002884FF687
:1013A000FE731A400280704730B5024600200023C9
:1013B0000024158A05EA0103958905EA010413B1A1
:1013C0000CB1012000E0002030BD1AB183890B432D
:1013D000838102E083898B438381704770B5002449
:1013E00000220023058C4FF6EF7635400584028CF1
:1013F0008388048B48F6FF752C404FF6FF452C4040
:101400000D884FF6FF7606EA05252C434FF6DF756B
:101410002A400D8906EA05152A434D8806EA051576
:101420002A43154DA84202D0144DA8421DD14FF6B3
:101430007F752A404D894FF6FF7606EA05152A4347
:101440004FF6BF752A408D8806EA05152A434FF6E8
:10145000FF352B404FF2FF752B408D8906EA85053D
:101460002B43CD8906EA85052B4383800483CD88F1
:101470000587028470BD0000002C0140003401404B
:101480000A460021018B4FF2FF7319404FF6FF739C
:1014900003EA02231943018370478185704701875E
:1014A000704781877047A0F840107047002202887B
:1014B0001D4B98420ED01D4B98420BD0B0F1804F7F
:1014C00008D01B4B984205D01A4B984202D01A4BB9
:1014D000984204D14FF68F731A404B881A43174B2A
:1014E000984207D0164B984204D04FF6FF431A405B
:1014F000CB881A4302808B8883850B8803850A4B2F
:1015000098420BD0094B984208D00E4B984205D018
:101510000D4B984202D00D4B984201D10B7A0386B5
:101520000123838270470000002C014000340140F9
:101530000004004000080040000C00400010004083
:1015400000140040004001400044014000480140B8
:1015500010B5002440F225511C4800F049F810B3A2
:101560001A4800F001F9C4B21948008800F400409C
:10157000C8B91748008800F4804060B10A2C03D035
:1015800000201349088020E01148008840F4004002
:101590000F49088019E00D2C06D10D48008840F451
:1015A00080400B49088010E009480088C0F30D0016
:1015B00008490C5406480088401C05490880084624
:1015C0000088C72801DD0020088010BD00380140D8
:1015D000580000206C00002021B1828942F40052A2
:1015E000828104E082894DF6FF731A408281704740
:1015F00070B50246002400230025002040F66A163C
:10160000B14200D100BFC1F3421501F01F03012612
:1016100006FA03F3012D02D19689334006E0022D2C
:1016200002D1168A334001E0968A33400C1201261B
:1016300006FA04F41688344013B10CB1012000E01E
:10164000002070BDF0B503460024002600250020D0
:1016500040F66A17B94200D100BF1846C1F34214E0
:1016600001F01F06012707FA06F5012C01D10C3005
:1016700004E0022C01D1103000E014301AB10768E8
:101680002F43076002E00768AF430760F0BD00002A
:101690002DE9F04786B005460E460024A24600BF5D
:1016A000A1460027B08900B100BF2F462C8A4CF616
:1016B000FF700440F08804432C82AC894EF6F3108E
:1016C0000440B08831890843718908430443AC81E0
:1016D000AC8A4FF6FF400440B0890443AC8201A8B5
:1016E000FFF782FB1F48874202D1DDF810A001E01E
:1016F000DDF80CA0A88900F4004040B10AEBCA0054
:1017000000EB0A1031684900B0FBF1F807E00AEB82
:10171000CA0000EB0A1031688900B0FBF1F86420C0
:10172000B8FBF0F004012009642101FB1089A889AD
:1017300000F4004040B1322000EBC900B0FBF1F0F2
:1017400000F00700044308E0322000EB0910642198
:10175000B0FBF1F000F00F0004432C8106B0BDE8AF
:10176000F08700000038014001468888C0F3080077
:101770007047000070B504460D460026012D00D1CB
:1017800001264EB1012E0FD1B4F1804F03D10821B3
:101790000648FFF7BDFA07E0B4F1804F03D10821F6
:1017A0000248FFF7B7FA00BF00BF70BD001001404C
:1017B0002DE9FC5F04460E4615461F4633464FF49E
:1017C00048724B494B48CDE90057FFF7CBF84A48E0
:1017D0000068241A01218807FFF7CCFF002C0BDAE0
:1017E00046A000F0B9F80120474908700221474897
:1017F000FFF78EFA644209E045A000F0ADF8002042
:101800004149087002214148FFF784FA3E480178B7
:1018100042A000F0A1F820B23B494880214643A0F5
:1018200000F09AF83448016844A000F095F8012CC3
:101830001FD101203449C860454800680921B0FB28
:10184000F1FB5846FEF7E9FE82462946FEF716FDF3
:1018500081464FF07E51FEF7D9FC8046FEF700FF2F
:1018600000B22949888002200874012039490860A3
:1018700026E02CB3B4F5C86F13DC1D48008800B215
:1018800021498880204604EBD07149101E4AD1605E
:101890001046C06811468860012008742D49086010
:1018A0000EE01348008800B2174988804FF4487052
:1018B000C860A4F548708860012008742549086054
:1018C0001148808881B24FF08040FFF7E6FD0E4856
:1018D000B0F9048008EBD870C0F34F014FF080409E
:1018E000FFF7DBFD01218807FFF752FDBDE8FC9FF4
:1018F000C80D00204801002064000020737465704A
:101900003C300D0A000000003401002000100140AE
:10191000737465703E300D0A000000007372645FDE
:10192000782E6469723A25640D0A0000537461725E
:10193000745F737465703A25640D0A0053746172A4
:10194000745F585F706F733A25640D0A00000000E1
:1019500000000020600000200FB4054B10B503A963
:10196000044A029800F018F810BC5DF814FB00005F
:10197000CD1B00085400002002E008C8121F08C157
:10198000002AFAD170477047002001E001C1121F00
:10199000002AFBD1704700002DE9FF4F89B09B461C
:1019A0000446002506E025280BD05A460B9990479F
:1019B000641C6D1C20780028F5D10DB02846BDE8C8
:1019C000F08F0027B8460122474900E0074314F88A
:1019D000013F203B02FA03F00842F7D120782E287D
:1019E00019D114F8010F47F004072A280ED06FF020
:1019F0002F022078A0F1300109290CD808EB8801CA
:101A000002EB410100EB0108641CF2E70A98641C38
:101A100050F8048B0A9020780028CED0642808D093
:101A2000692806D075281ED05A460B9990476D1C20
:101A300058E00A994FF00A0901C90A91002802DA10
:101A400040422D2102E0390504D52B218DF82010CC
:101A5000012103E0F90704D02021F7E78A4608AE08
:101A60000DE00021FAE70A994FF00A0901C90A912D
:101A7000F7E74946FEF788FE303106F8011D0028D9
:101A8000F7D1ADEB060000F12009780701D44FF043
:101A90000108C84502DDA8EB090000E000208046EF
:101AA000002706E008A85A46C05D0B9990476D1CB8
:101AB0007F1C5745F6DB04E030205A460B999047CF
:101AC0006D1CB8F10001A8F10108F5DC05E016F87D
:101AD000010B5A460B9990476D1CB9F10001A9F111
:101AE0000109F4DC641C65E70928010010B56FF0FA
:101AF0000400FFF757FA0A4800680A49B0FBF1F002
:101B0000094908700846007800EB4001C1EBC0109D
:101B10004FF6FF7101EAC0000449088010BD0000C3
:101B20000000002000127A00500000205200002027
:101B30000146114A12884A434FF0E0235A610022BD
:101B40009A611A46126942F001021A6100BF4FF011
:101B5000E022106900F001021AB100F48032002A7C
:101B6000F5D04FF0E022126922F001024FF0E0239D
:101B70001A6100229A617047520000202DE9F0415D
:101B800004460D46002600220E4B20462946FEF74D
:101B9000CCFC074600220C4BFEF7AEFB04460D467C
:101BA00009E022462B4620462946FEF74CFC044617
:101BB0000D46701C86B2082EF3DB20462946BDE890
:101BC000F0810000000070400000F03F00BF054AB7
:101BD000128802F04002002AF9D0C2B2014B1B1D4C
:101BE0001A80704700380140FFF780FFFFF794F834
:101BF0004FF4165000F098F8FFF718FA63E03248F7
:101C0000008800F4004000285DD03048007830386B
:101C1000642148432D494978303901EB810100EBBB
:101C200041012A488078303808442949086008462C
:101C300000684000086027490968C1EB011188006D
:101C4000FEF701FD0646244A244BFEF76EFC0446CF
:101C5000FEF733FD22490860224909684800FEF773
:101C6000F2FC0646204A214BFEF7EDFB0446FEF748
:101C700024FD1F4908601F4909684800FEF7E3FC7E
:101C80000646194A194BFEF7DEFB0446FEF715FD22
:101C9000194908600E480068FEF7C4FC06464FF07C
:101CA000C062164BFEF741FC0446FEF725FD1449C1
:101CB0000860144B144A154905480068FFF778FD81
:101CC0000020014908809AE7580000206C0000209D
:101CD0003C0000204C0000209A99999999192340C2
:101CE00038000020440000206E861BF0F9210940D6
:101CF000300000204800002034000020A4D6F03F2F
:101D0000280000200000A040000048440000484691
:101D100010B500214FF08040FFF7C3FB00214FF0CA
:101D20008040FFF7C0FB10BD10B586B0044601210E
:101D300044F20400FFF748F84FF40070ADF81400C7
:101D400003208DF8160018208DF8170005A91C48EF
:101D5000FEF70AFF4FF48060ADF8140004208DF800
:101D6000170005A91648FEF7FFFE25208DF8000094
:101D700003208DF801008DF8020001208DF803008A
:101D80006846FEF7CFFF01940020ADF80800ADF8DB
:101D90000A00ADF80C00ADF810000C20ADF80E00F4
:101DA00001A90848FFF774FC012240F225510548BB
:101DB000FFF748FC01210348FFF70EFC06B010BDF9
:101DC0000008014000380140E81D00080000002024
:101DD0006C00000078190008541E00086C000020F8
:101DE0009C1700008819000800A24A0400000000A7
:101DF00000000000010203040607080900000000BB
:101E0000010203040102030406070809020406088C
:101E100000000000000000000000000000000000C2
:101E200000000000000000000000000009000000A9
:101E30000900000009000000000000000000000090
:101E4000000023002300000000000000000000004C
:041E5000000000008E
:0400000508000131BD
:00000001FF
