:020000040800F2
:1000000010180020450100084D0100084F010008AC
:1000100051010008530100085501000800000000CC
:100020000000000000000000000000005701000870
:1000300059010008000000005B0100085D01000894
:100040005F0100085F0100085F0100085F01000810
:100050005F0100085F0100085F0100085F01000800
:10006000C1020008F5020008390300085F0100081A
:100070005F0100085F0100085F0100085F010008E0
:100080005F0100085F0100085F0100085F010008D0
:100090005F0100085F0100085F0100085F010008C0
:1000A0005F0100085F0100085F0100085F010008B0
:1000B0009D0700085F0100085F0100085F0100085C
:1000C0005F0100085F0100085F0100085F01000890
:1000D0005F010008A50900085F0100085F01000832
:1000E0005F0100085F0100085F0100085F01000870
:1000F0005F0100085F0100085F0100085F01000860
:100100005F0100085F0100085F0100085F0100084F
:100110005F0100085F0100085F0100085F0100083F
:100120005F0100085F0100085F0100085F0100082F
:10013000DFF80CD000F02EF800480047090E000848
:10014000101800200648804706480047FEE7FEE7F3
:10015000FEE7FEE7FEE7FEE7FEE7FEE7FEE7FEE777
:100160003D0700083101000830B50B46014600206C
:100170002022012409E021FA02F59D4205D303FA69
:1001800002F5491B04FA02F52844151EA2F10102EA
:10019000F1DC30BD064C074D06E0E06840F001039D
:1001A00094E8070098471034AC42F6D3FFF7C4FF39
:1001B000D40E0008F40E000810B5044624B1012C3A
:1001C0000CD0022C1ED113E080210F4800F069F9F9
:1001D0004FF480710C4800F062F913E04FF4807125
:1001E000094800F05EF98021074800F058F909E05D
:1001F0008021054800F055F94FF48071024800F065
:1002000050F900BF00BF10BD0010014008B501212A
:10021000102000F091F94FF4C070ADF800001020EC
:100220008DF8030003208DF802006946064800F0AF
:10023000ABF88021044800F034F94FF48071024893
:1002400000F02FF908BD000000100140FFF7DEFFAD
:1002500029E01548008800F4004020B313480078D6
:100260003038134908800846B0F9001011A000F09A
:10027000ABFC0F48B0F9000020B1012806D00228DD
:100280000CD107E00020FFF797FF08E00120FFF7FF
:1002900093FF04E00220FFF78FFF00E000BF00BFE4
:1002A000002001490880D4E75C0000207000002095
:1002B000440000205374617475733A25640D0A007C
:1002C00010B50A2000F06CFD0848006848B90848DD
:1002D000006808B9012000E000200549086000F02E
:1002E0009DFD042000F04AF810BD000008012342E3
:1002F0009481214210B50D48006898B90C480068F7
:1003000008B9012000E000200949086000214FF0F1
:10031000804000F041FB0748008881B24FF08040E8
:1003200000F03CFB082000F029F810BD0C0123422E
:10033000948121425E00002010B50D48006898B9F4
:100340000C48006808B9012000E000200949086055
:100350000948008881B24FF0804000F01DFB002169
:100360004FF0804000F01AFB102000F007F810BD9D
:10037000100123429481214260000020014908605D
:1003800070470000140401402DE9F04102460025A9
:100390000026002000230024002791F803C00CF061
:1003A0000F0591F803C00CF0100CBCF1000F03D046
:1003B00091F802C04CEA050591F800C0BCF1000FAD
:1003C00031D0146800202BE04FF0010C0CFA00F340
:1003D000B1F800C00CEA03069E4220D183004FF022
:1003E0000F0C0CFA03F7BC4305FA03FC4CEA0404B7
:1003F00091F803C0BCF1280F06D14FF0010C0CFAA4
:1004000000FCC2F814C00AE091F803C0BCF1480F28
:1004100005D14FF0010C0CFA00FCC2F810C0401CD2
:100420000828D1D31460B1F800C0BCF1FF0F34DD4F
:10043000546800202EE000F1080C4FF0010808FA83
:100440000CF3B1F800C00CEA03069E4221D18300F0
:100450004FF00F0C0CFA03F7BC4305FA03FC4CEA0F
:10046000040491F803C0BCF1280F05D100F1080C79
:1004700008FA0CF8C2F8148091F803C0BCF1480FD8
:1004800007D100F1080C4FF0010808FA0CF8C2F887
:100490001080401C0828CED35460BDE8F081416133
:1004A00070470161704710B54FF4A06000F03AF852
:1004B00010BD000070B5002100230F22C47804B3E2
:1004C000154C246804F4E064C4F5E064210AC1F129
:1004D0000403CA40447804FA03F1847814402143A9
:1004E00009010E4C0678A155047804F01F0501247B
:1004F000AC4005786D11AD0005F1E025C5F800416F
:1005000009E0047804F01F050124AC40044D06788E
:10051000761145F8264070BD0CED00E000E400E0E7
:1005200080E100E002490143024A11607047000087
:100530000000FA050CED00E029B1064A9269024379
:10054000044B9A6104E0034A92698243014B9A6129
:10055000704700000010024030B500210022002446
:1005600000232D4D6D6805F00C0121B1042905D043
:10057000082923D105E0294D056022E0274D0560BB
:100580001FE0254D6D6805F47012234D6D6805F46C
:100590008034022505EB92421CB9214D554305607C
:1005A0000BE01D4D6D6805F400351DB11C4D554324
:1005B000056002E0194D5543056002E0174D0560E6
:1005C00000BF00BF144D6D6805F0F0010909154D1D
:1005D0006B5C0568DD4045600F4D6D6805F4E061BA
:1005E000090A104D6B5C4568DD4085600A4D6D68F9
:1005F00005F46051C90A0B4D6B5C4568DD40C56070
:10060000054D6D6805F44041890B074D6B5CC5686D
:10061000B5FBF3F5056130BD0010024000127A0011
:1006200000093D00140000202400002010B500F057
:1006300001F810BD0CB5002001900090334800680F
:1006400040F480303149086000BF3048006800F451
:10065000003000900198401C0190009818B9019852
:10066000B0F5A06FF1D12948006800F4003010B156
:100670000120009001E0002000900098012843D163
:100680002348006840F010002149086008460068CF
:1006900020F0030008600846006840F0020008608F
:1006A0001A4840681949486008464068486008464A
:1006B000406840F4806048600846406820F47C1040
:1006C00048600846406840F4E81048600846006802
:1006D00040F08070086000BF0C48006800F00070B7
:1006E0000028F9D00948406820F003000749486015
:1006F0000846406840F00200486000BF0348406878
:1007000000F00C000828F9D10CBD000000100240D8
:1007100000200240042808D14FF0E021096941F08F
:1007200004014FF0E022116107E04FF0E021096978
:1007300021F004014FF0E0221161704710B5134819
:10074000006840F0010011490860084640681049FF
:1007500008400E494860084600680E4908400B49A9
:1007600008600846006820F4802008600846406859
:1007700020F4FE0048604FF41F008860FFF756FF2A
:100780004FF000600449086010BD000000100240F6
:100790000000FFF8FFFFF6FE08ED00E010B50121B4
:1007A000880700F0E4F800287ED06348007C30B170
:1007B000012814D002287BD003280FD153E0002059
:1007C0005E49088000214FF0804000F0C4F8082105
:1007D0005B48FFF764FE00205A49086093E05748E1
:1007E0000088401C554908805348007828B956486D
:1007F0000068401C5449086004E053480068401EEB
:10080000514908604C48C0684C49098888420ADD53
:100810004E484A49098830F8110000B2464988809C
:10082000012008741EE044488068444909888842D1
:100830000BD842480088401E444931F8100000B2ED
:100840003D498880022008740CE03C480088B0F5DF
:10085000487F07DB3D48B0F83E0600B23649888045
:10086000032008744FE035480088401C3349088055
:100870003148007828B934480068401C3249086083
:1008800004E031480068401E2F4908602A4880680B
:100890002A49098888420AD82C48B0F83E0600B296
:1008A00025498880022001E044E001E008742AE044
:1008B00022480088401C214908801F48007828B938
:1008C00021480068401C2049086004E01E48006878
:1008D000401E1D4908601848B0F9020017490988F0
:1008E00088420CDD1448B0F9020014490988401A06
:1008F000164931F8100000B20F49888002E000204C
:100900000D49087400BF00BF0B48808881B24FF0CA
:10091000804000F03DF80848B0F9044004EBD47082
:10092000C0F34F014FF0804000F034F801218807F8
:1009300000F00EF810BD0000380100206C0000200F
:10094000001001406400002068000020CC0D002051
:10095000CA430282704721B1028842F0010202803C
:1009600004E002884FF6FE731A400280704730B5EB
:100970000246002000230024158A05EA0103958918
:1009800005EA010413B10CB1012000E0002030BDE4
:10099000818570470187704781877047A0F84010B4
:1009A0007047000010B5002440F225511C4800F0AB
:1009B00049F810B31A4800F001F9C4B21948008888
:1009C00000F40040C8B91748008800F4804060B1C6
:1009D0000A2C03D000201349088020E01148008829
:1009E00040F400400F49088019E00D2C06D10D4855
:1009F000008840F480400B49088010E009480088D6
:100A0000C0F30D0008490C5406480088401C0549F5
:100A1000088008460088C72801DD0020088010BD36
:100A2000003801405C0000207000002021B1828964
:100A300042F40052828104E082894DF6FF731A402D
:100A40008281704770B502460024002300250020F3
:100A500040F66A16B14200D100BFC1F3421501F061
:100A60001F03012606FA03F3012D02D196893340B4
:100A700006E0022D02D1168A334001E0968A334007
:100A80000C12012606FA04F41688344013B10CB196
:100A9000012000E0002070BDF0B5034600240026D0
:100AA0000025002040F66A17B94200D100BF184661
:100AB000C1F3421401F01F06012707FA06F5012CC5
:100AC00001D10C3004E0022C01D1103000E01430D0
:100AD0001AB107682F43076002E00768AF43076059
:100AE000F0BD00002DE9F04786B005460E46002413
:100AF000A24600BFA1460027B08900B100BF2F4623
:100B00002C8A4CF6FF700440F08804432C82AC8998
:100B10004EF6F3100440B0883189084371890843C8
:100B20000443AC81AC8A4FF6FF400440B0890443D3
:100B3000AC8201A8FFF710FD1F48874202D1DDF803
:100B400010A001E0DDF80CA0A88900F4004040B13D
:100B50000AEBCA0000EB0A1031684900B0FBF1F85B
:100B600007E00AEBCA0000EB0A1031688900B0FB0D
:100B7000F1F86420B8FBF0F004012009642101FBC6
:100B80001089A88900F4004040B1322000EBC90070
:100B9000B0FBF1F000F00700044308E0322000EB66
:100BA00009106421B0FBF1F000F00F0004432C8128
:100BB00006B0BDE8F0870000003801400146888893
:100BC000C0F30800704700000FB4054B10B503A92F
:100BD000044A029800F018F810BC5DF814FB0000FD
:100BE000ED0D00085800002002E008C8121F08C1DF
:100BF000002AFAD170477047002001E001C1121F9E
:100C0000002AFBD1704700002DE9FF4F89B09B46B9
:100C10000446002506E025280BD05A460B9990473C
:100C2000641C6D1C20780028F5D10DB02846BDE865
:100C3000F08F0027B8460122474900E0074314F827
:100C4000013F203B02FA03F00842F7D120782E281A
:100C500019D114F8010F47F004072A280ED06FF0BD
:100C60002F022078A0F1300109290CD808EB880167
:100C700002EB410100EB0108641CF2E70A98641CD6
:100C800050F8048B0A9020780028CED0642808D031
:100C9000692806D075281ED05A460B9990476D1CBE
:100CA00058E00A994FF00A0901C90A91002802DAAE
:100CB00040422D2102E0390504D52B218DF820106A
:100CC000012103E0F90704D02021F7E78A4608AEA6
:100CD0000DE00021FAE70A994FF00A0901C90A91CB
:100CE000F7E74946FFF740FA303106F8011D0028C2
:100CF000F7D1ADEB060000F12009780701D44FF0E1
:100D00000108C84502DDA8EB090000E0002080468C
:100D1000002706E008A85A46C05D0B9990476D1C55
:100D20007F1C5745F6DB04E030205A460B9990476C
:100D30006D1CB8F10001A8F10108F5DC05E016F81A
:100D4000010B5A460B9990476D1CB9F10001A9F1AE
:100D50000109F4DC641C65E70928010010B56FF097
:100D60000400FFF7D7FC0A4800680A49B0FBF1F01D
:100D7000094908700846007800EB4001C1EBC0103B
:100D80004FF6FF7101EAC0000449088010BD000061
:100D90000000002000127A005400002056000020BD
:100DA0000146114A12884A434FF0E0235A6100225B
:100DB0009A611A46126942F001021A6100BF4FF0AF
:100DC000E022106900F001021AB100F48032002A1A
:100DD000F5D04FF0E022126922F001024FF0E0233B
:100DE0001A6100229A6170475600002000BF054A30
:100DF000128802F04002002AF9D0C2B2014B1B1D3A
:100E00001A80704700380140FFF7A8FFFFF74BFB3F
:100E10004FF4165000F00EF8FFF718FA10B5002145
:100E20004FF08040FFF7B8FD00214FF08040FFF702
:100E3000B5FD10BD10B586B00446012144F2040092
:100E4000FFF77AFB4FF40070ADF8140003208DF823
:100E5000160018208DF8170005A91C48FFF794FA12
:100E60004FF48060ADF8140004208DF8170005A938
:100E70001648FFF789FA25208DF8000003208DF829
:100E800001008DF8020001208DF803006846FFF78D
:100E900011FB01940020ADF80800ADF80A00ADF890
:100EA0000C00ADF810000C20ADF80E0001A90848A8
:100EB000FFF718FE012240F225510548FFF7ECFD2F
:100EC00001210348FFF7B2FD06B010BD0008014044
:100ED00000380140F40E00080000002070000000FF
:100EE000E80B0008640F000870000020A017000045
:100EF000F80B000800A24A040000000000000000F7
:100F000001020304060708090000000001020304AF
:100F10000102030406070809020406080000000095
:100F200000000000000000000000000000000000C1
:100F300000000000000000000000000009000000A8
:100F4000090000000900000000000000000000008F
:100F5000000023002300000000000000000000004B
:040F6000000000008D
:0400000508000131BD
:00000001FF
