:020000040800F2
:10000000F0040020450100084D0100084F010008E0
:1000100051010008530100085501000800000000CC
:100020000000000000000000000000005701000870
:1000300059010008000000005B0100085D01000894
:100040005F0100085F0100085F0100085F01000810
:100050005F0100085F0100085F0100085F01000800
:100060008D010008E1010008450200085F01000859
:100070005F0100085F0100085F0100085F010008E0
:100080005F0100085F0100085F0100085F010008D0
:100090005F0100085F0100085F0100085F010008C0
:1000A0005F0100085F0100085F0100085F010008B0
:1000B0005F0100085F0100085F0100085F010008A0
:1000C0005F0100085F0100085F0100085F01000890
:1000D0005F010008310B00085F0100085F010008A4
:1000E0005F0100085F0100085F0100085F01000870
:1000F0005F0100085F0100085F0100085F01000860
:100100005F0100085F0100085F0100085F0100084F
:100110005F0100085F0100085F0100085F0100083F
:100120005F0100085F0100085F0100085F0100082F
:10013000DFF80CD000F018F800480047C50C0008A4
:10014000F00400200648804706480047FEE7FEE727
:10015000FEE7FEE7FEE7FEE7FEE7FEE7FEE7FEE777
:100160005108000831010008064C074D06E0E06820
:1001700040F0010394E8070098471034AC42F6D3EE
:10018000FFF7DAFF040D0008240D000810B50A205F
:1001900000F072FD0848006848B90848006808B9CE
:1001A000012000E000200549086000F09FFD0420C8
:1001B00000F09AF810BD000008012342948121420A
:1001C0001CB50420009000208DF804000C208DF850
:1001D000050001208DF80600684600F08BF81CBD74
:1001E00010B50D48006898B90C48006808B901209E
:1001F00000E000200949086000214FF0804000F035
:100200003FFC0748008881B24FF0804000F03AFC84
:10021000082000F069F810BD0C01234294812142AE
:100220001E0000201CB50820009000208DF804005E
:100230000C208DF8050001208DF80600684600F0BE
:1002400059F81CBD10B50D48006898B90C480068F5
:1002500008B9012000E00020094908600948008829
:1002600081B24FF0804000F00BFC00214FF0804045
:1002700000F008FC102000F037F810BD10012342F8
:1002800094812142200000201CB510200090002005
:100290008DF804000C208DF8050001208DF8060073
:1002A000684600F027F81CBD10B500F085F9012163
:1002B000084600F035FA0421084600F089F80321C9
:1002C000042000F085F80221042000F081F8FFF7F7
:1002D00077FFFFF7A7FFFFF7D7FF00F099F900F0CE
:1002E000A7F900F0B5F910BD01490860704700009A
:1002F00014040140002123498279002A3AD00A4699
:10030000126803689A430B461A600A1D1268036854
:100310009A430B1D1A60027911440A6803681A4354
:100320000A60184A0832126803689A43154B08336A
:100330001A601A1D126803689A43124B0C331A6034
:100340004279102A0ED11A1F126803681A430D4B06
:1003500008331A601A1D126803681A43094B0C33DC
:100360001A600DE00749427911440A6803681A438C
:100370000A6005E0027911440A6803689A430A603A
:10038000704700000004014008B54FF48060ADF8EC
:10039000000018208DF8030003208DF80200694644
:1003A000014800F035F808BD000C014008B54FF4D5
:1003B0000060ADF8000018208DF8030003208DF8D0
:1003C00002006946014800F023F808BD000C014016
:1003D00030B500228B071C0F0F2303FA04F20B4BDE
:1003E0008C1053F824309343084C8D1044F825307A
:1003F00023468C1053F824308C07240F00FA04F4A1
:100400002343024C8D1044F8253030BD08000140D4
:100410002DE9F0410246002500260020002300249B
:10042000002791F803C00CF00F0591F803C00CF001
:10043000100CBCF1000F03D091F802C04CEA050586
:1004400091F800C0BCF1000F31D0146800202BE0FF
:100450004FF0010C0CFA00F3B1F800C00CEA0306EF
:100460009E4220D183004FF00F0C0CFA03F7BC43DF
:1004700005FA03FC4CEA040491F803C0BCF1280F10
:1004800006D14FF0010C0CFA00FCC2F814C00AE0CF
:1004900091F803C0BCF1480F05D14FF0010C0CFAE4
:1004A00000FCC2F810C0401C0828D1D31460B1F879
:1004B00000C0BCF1FF0F34DD546800202EE000F1D5
:1004C000080C4FF0010808FA0CF3B1F800C00CEA70
:1004D00003069E4221D183004FF00F0C0CFA03F764
:1004E000BC4305FA03FC4CEA040491F803C0BCF1D8
:1004F000280F05D100F1080C08FA0CF8C2F8148096
:1005000091F803C0BCF1480F07D100F1080C4FF07F
:10051000010808FA0CF8C2F81080401C0828CED355
:100520005460BDE8F0810000F0B50A4600230024C5
:100530000021002500F00046B6F1004F02D11D4E0B
:10054000F16901E01B4E7168C0F3034583B200F40A
:100550004016B6F5401F08D121F07061154E76683F
:1005600026F07066134F7E6012E000F48016B6F538
:10057000801F06D1032606FA05F4A14341F07061FD
:1005800006E0460D360103FA06F6B14341F070610C
:1005900022B1460D360103FA06F6314300F000465B
:1005A000B6F1004F02D1034EF16101E0014E7160DE
:1005B000F0BD00000000014008B50121402000F01E
:1005C000AFF81C20ADF8000048208DF80300032090
:1005D0008DF8020069460248FFF71AFF08BD0000C7
:1005E0000018014008B50121082000F099F82020EA
:1005F000ADF8000010208DF8030003208DF80200F4
:1006000069460248FFF704FF08BD0000000C0140E6
:1006100008B508208DF8000002208DF801008DF843
:10062000020001208DF80300684600F027F808BD9D
:1006300008B509208DF8000002208DF801008DF822
:10064000020001208DF80300684600F017F808BD8D
:1006500008B50A208DF8000002208DF801008DF801
:10066000020001208DF80300684600F007F808BD7D
:1006700010B54FF4A06000F039F810BD70B500213E
:1006800000230F22C47804B3154C246804F4E064FA
:10069000C4F5E064210AC1F10403CA40447804FAB5
:1006A00003F184781440214309010E4C0678A155CA
:1006B000047804F01F050124AC4005786D11AD00ED
:1006C00005F1E025C5F8004109E0047804F01F05B4
:1006D0000124AC40044D0678761145F8264070BDE3
:1006E0000CED00E000E400E080E100E0024901439D
:1006F000024A1160704700000000FA050CED00E0AE
:1007000029B1064AD2690243044BDA6104E0034A84
:10071000D2698243014BDA61704700000010024049
:1007200029B1064A92690243044B9A6104E0034AE4
:1007300092698243014B9A617047000000100240A9
:1007400010B500F001F810BD0CB50020019000902C
:100750003348006840F480303149086000BF3048B9
:10076000006800F4003000900198401C019000984F
:1007700018B90198B0F5A06FF1D12948006800F4CC
:10078000003010B10120009001E00020009000989E
:10079000012843D12348006840F010002149086037
:1007A0000846006820F0030008600846006840F032
:1007B000020008601A4840681949486008464068C5
:1007C00048600846406840F48060486008464068D9
:1007D00020F47C1048600846406840F4E810486007
:1007E0000846006840F08070086000BF0C48006850
:1007F00000F000700028F9D00948406820F003009C
:10080000074948600846406840F00200486000BF61
:100810000348406800F00C000828F9D10CBD000026
:100820000010024000200240042808D14FF0E021CF
:10083000096941F004014FF0E022116107E04FF037
:10084000E021096921F004014FF0E02211617047B5
:1008500010B51348006840F00100114908600846CF
:100860004068104908400E494860084600680E4933
:1008700008400B4908600846006820F480200860A2
:100880000846406820F4FE0048604FF41F0088606E
:10089000FFF756FF4FF000600449086010BD0000EC
:1008A000001002400000FFF8FFFFF6FE08ED00E038
:1008B0003EB505460C46A8B2ADF80400ADF80040C0
:1008C0000020ADF80600ADF8020069464FF0804008
:1008D00000F0DCF83EBD00007FB504460D46012166
:1008E0000846FFF70DFF01210920FFF719FF01213D
:1008F0001548FFF719FEFFF747FDFFF757FD29469B
:100900002046FFF7D5FF7020ADF800000120ADF8BC
:1009100002000220ADF808006946400700F022F806
:1009200069464FF0804000F06DF800214FF08040A4
:1009300000F0A6F800214FF0804000F0A3F801215C
:10094000880700F003F87FBD0003180021B102887A
:1009500042F00102028004E002884FF6FE731A4062
:100960000280704770B5002400220023058C4FF6EA
:10097000FF6635400584028C8388848B4FF68F7523
:100980002C404FF6FC752C400D882C434FF6FF553C
:100990002A400D894FF6FF7606EA05252A434D8841
:1009A00006EA05252A43154DA84202D0144DA84257
:1009B0001DD14FF2FF752A404D894FF6FF7606EAAA
:1009C00005252A434FF6FF352A408D8806EA05257E
:1009D0002A434EF6FF752B404DF6FF752B408D894F
:1009E00006EA05152B43CD8906EA05152B438380BE
:1009F0008483CD888587028470BD0000002C01406F
:100A00000034014070B5002200230024058C4EF60E
:100A1000FF7635400584038C8488828B48F6FF7509
:100A20002A404FF6FF452A400D884FF6FF7606EA2A
:100A300005252A434DF6FF752B400D8906EA05353D
:100A40002B434D8806EA05352B430B4DA84202D0B7
:100A50000A4DA84208D14BF6FF752C408D894FF600
:100A6000FF7606EA85152C4384808283CD88A0F822
:100A70004050038470BD0000002C01400034014050
:100A800081877047A0F8401070470000002202885C
:100A90001D4B98420ED01D4B98420BD0B0F1804FA9
:100AA00008D01B4B984205D01A4B984202D01A4BE3
:100AB000984204D14FF68F731A404B881A43174B54
:100AC000984207D0164B984204D04FF6FF431A4085
:100AD000CB881A4302808B8883850B8803850A4B59
:100AE00098420BD0094B984208D00E4B984205D043
:100AF0000D4B984202D00D4B984201D10B7A0386E0
:100B00000123838270470000002C01400034014023
:100B10000004004000080040000C004000100040AD
:100B200000140040004001400044014000480140E2
:100B300010B540F225511D4800F03EF810B31B4897
:100B400000F064F8C4B21A48008800F40040C8B944
:100B50001748008800F4804060B10A2C03D00020C0
:100B60001349088020E01248008840F400401049F2
:100B7000088019E00D2C06D10D48008840F4804013
:100B80000B49088010E00A480088C0F30D000949AD
:100B90000C5407480088401C054908800846008816
:100BA000C72801DD0020088010BD0000003801408A
:100BB0001C0000202400002070B502460024002301
:100BC0000025002040F66A16B14200D100BFC1F3F3
:100BD000421501F01F03012606FA03F3012D02D18D
:100BE0009689334006E0022D02D1168A334001E097
:100BF000968A33400C12012606FA04F41688344013
:100C000013B10CB1012000E0002070BD01468888BE
:100C1000C0F30800704702E008C8121F08C1002A8C
:100C2000FAD170477047002001E001C1121F002A6D
:100C3000FBD1704710B56FF00400FFF7F5FD0A48CF
:100C400000680A49B0FBF1F00949087008460078CD
:100C500000EB4001C1EBC0104FF6FF7101EAC0008C
:100C60000449088010BD00000000002000127A0036
:100C700014000020160000200146114A12884A4341
:100C80004FF0E0235A6100229A611A46126942F03D
:100C900001021A6100BF4FF0E022106900F001026A
:100CA0001AB100F48032002AF5D04FF0E022126928
:100CB00022F001024FF0E0231A6100229A6170478E
:100CC00016000020FFF7B6FFFFF7D2FCFFF78AFC03
:100CD000FFF7EAFA47212720FFF7FEFD002002492F
:100CE000086000BFFEE700009481214210B500219A
:100CF0004FF08040FFF7C4FE00214FF08040FFF727
:100D0000C1FE10BD240D00080000002024000000DA
:100D1000160C0008480D000824000020CC04000038
:100D2000260C000800A24A04000000000000000099
:100D3000010203040607080900000000000000008B
:080D4000000023002300000065
:0400000508000131BD
:00000001FF
